:020000040800F2
:10000000480700209D010008A5010008A70100087D
:10001000A9010008AB010008AD01000800000000C4
:10002000000000000000000000000000AF01000818
:10003000B101000800000000B3010008912500088C
:10004000B7010008B7010008B7010008B7010008B0
:10005000B7010008B7010008B7010008B7010008A0
:10006000690400086F04000875040008B70100085F
:10007000B7010008B7010008B7010008B701000880
:10008000B7010008B7010008B1020008B701000875
:10009000B7010008B7010008B70100087B04000899
:1000A000B7010008B7010008B7010008B701000850
:1000B000B7010008B7010008B7010008B701000840
:1000C000B7010008B7010008B7010008B701000830
:1000D000B7010008B7010008152D0008B701000896
:1000E000B7010008B7010008B7010008B701000810
:1000F000B7010008B7010008B7010008B701000800
:10010000B7010008B701000895260008B7010008EC
:10011000B7010008B7010008B7010008B7010008DF
:10012000E1030008B7010008B7010008B7010008A3
:10013000B7010008B7010008B7010008B7010008BF
:10014000B7010008B7010008B7010008B7010008AF
:10015000B7010008B7010008B7010008B70100089F
:10016000B7010008B7010008B7010008B70100088F
:10017000B7010008B7010008B7010008000000003F
:10018000B7010008B7010008DFF80CD000F07EF8D6
:1001900000480047F52E0008480700200648804721
:1001A00006480047FEE7FEE7FEE7FEE7FEE7FEE75C
:1001B000FEE7FEE7FEE7FEE74126000889010008AA
:1001C0002DE9F05F0546002092469B46884606468C
:1001D000814640241BE0284641464746224600F01F
:1001E00045F853465A46C01A914110D31146184655
:1001F000224600F02CF82D1A67EB01084F462246E4
:100200000120002100F023F817EB00094E41201EC9
:10021000A4F10104DFDC484631462A464346BDE8E6
:10022000F09F30B50B46014600202022012409E052
:1002300021FA02F59D4205D303FA02F5491B04FA9F
:1002400002F52844151EA2F10102F1DC30BD202A7E
:1002500004DB203A00FA02F1002070479140C2F11D
:10026000200320FA03F3194390407047202A04DB4F
:10027000203A21FA02F00021704721FA02F3D0401F
:10028000C2F120029140084319467047064C074DC1
:1002900006E0E06840F0010394E807009847103456
:1002A000AC42F6D3FFF774FFB82F0008D82F000830
:1002B000014800F08FB9000024000020454910B526
:1002C0004A6822F440324A604A6843681A434A60E6
:1002D00001684A6822F480724A6001684A680369CA
:1002E00042EA03224A6001684A6822F040724A608A
:1002F00001684A6883681A434A6001688A6822F480
:1003000000628A6001688A68C3681A438A60816AE9
:100310006FF07062D14201688A6822F070628A6070
:1003200001688A680CD0836A1A438A6001688A6807
:1003300022F040528A6001688A68C36A1A4301E069
:1003400022F040528A6001688A6822F002028A60C4
:1003500001688A68836942EA43028A60016A002967
:1003600001684A680FD042F400624A6001684A6836
:1003700022F460424A6001684A68174C436A04EB01
:1003800043331A4301E022F400624A600168CA6AFA
:1003900022F47002CA620168CA6A838B0F4C04EBB4
:1003A00003531A43CA6201688A6822F400728A60A1
:1003B00001688A68036B42EA43228A6001688A689E
:1003C00022F480628A6001688A68406942EA80207B
:1003D000886010BD0023014000E0FFFF0000F0FF37
:1003E000014800F023BA00006C00002001681823C7
:1003F000CAB2103AB2FBF3F2054B6FF30901032ABC
:100400009B5CC36500D9091D8165084670470000E3
:10041000982F000810B5014600208B698A6A4FF0BA
:10042000C07453B1B3F5005F15D072B1012A0CD07E
:10043000022A0AD0032A09D104E01AB1012A06D0FF
:10044000022A03D1C96AC90100D5012010BDC96AB9
:10045000A142FAD010BD002AF7D0012AF2D0022A18
:10046000F3D0032AF3D010BD042000F01BBB0820FA
:1004700000F018BB102000F015BB402000F012BBAC
:100480007047000078B50024009490F83C20012AC1
:1004900019D0012280F83C200A6807230568092A40
:1004A00013D9EE680A3A02EB420293409E43EE6093
:1004B0000B788A680A3B03EB43039A400368DD68C4
:1004C0002A43DA6010E0022078BD2E6902EB420276
:1004D00093409E432E610B788A6803EB43039A4056
:1004E00003681D692A431A614A681F23072A13D229
:1004F00005686E6B521E02EB820293409E436E6350
:100500000B790A885B1E92B203EB83039A4003685F
:100510005D6B2A435A6327E005680D2A12D22E6BC1
:10052000D21F02EB820293409E432E630B790A880E
:10053000DB1F92B203EB83039A4003681D6B2A43CF
:100540001A6311E0EE6A0D3A02EB820293409E4379
:10055000EE620B790A880D3B92B203EB83039A405B
:100560000368DD6A2A43DA62164B0568144A9D4225
:1005700006D10D68122D03D1556845F480055560EC
:1005800005689D4218D10B68102B01D0112B13D197
:10059000536843F400035360096810290CD10A49D9
:1005A0000A4A0968B1FBF2F101EB8101490000E060
:1005B000491E00910029FBD180F83C40002078BD05
:1005C00000230140002001401C00002040420F0099
:1005D0007047704770B50446006801684268C1F30F
:1005E0004001C2F3401251B34AB3216CC90603D48F
:1005F000216C41F400712164816811F0405F17D1D2
:10060000A169A9B9C16A11F4700F02D081684905C6
:100610000ED4416821F020014160206C20F48070EC
:100620002064206CC00403D4206C40F001002064DE
:100630002046FFF7CDFF21686FF0120008602068A8
:1006400001684268C1F38001C2F3C01289B382B36A
:10065000216CC90603D4216C41F4005121648168E6
:1006600011F4401F1ED1816B11F4401F02D081682C
:10067000490517D44168490514D4816811F0405FD9
:1006800010D1A16971B9416821F080014160206CED
:1006900020F480502064206CC00503D4206C40F00E
:1006A000010020642046FFF7EBFE21686FF00C008C
:1006B000086020680168426811F0010FC2F38012DF
:1006C0000ED06AB10068C0070AD0206C40F48030B8
:1006D0002064204600F046F821686FF001000860B1
:1006E000206801684268C1F34011C2F380620029AA
:1006F0000DD0002A0BD0616C41F0020161646FF0F3
:10070000200505602046FFF764FF2068056070BD86
:1007100070B504004FF0000503D0206C002610B126
:1007200007E0012070BD666484F83C60204600F05C
:100730001BF8206CC00610D4206C20F4885040F0C8
:10074000020020642046FFF7B9FD6664206C20F0AB
:10075000020040F00100206400E0012584F83C60C4
:10076000284670BD7047000070B5064600681C49F9
:1007700086B0884231D11B480025016841F4807160
:1007800001600068032400F48070059006208DE865
:1007900031006946144800F091F900946946134805
:1007A000CDE9014500F08AF9124C1148C4E9000571
:1007B0000015A560C4E90350400060618000C4E9F1
:1007C000060525622046656200F000F918B1A321F4
:1007D00009A002F0AFFAB463A66306B070BD0000D2
:1007E000002001404438024000080240000402405A
:1007F000106402406C0000202E2E2F5372632F6174
:1008000064632E630000000090F83510022903D0C5
:100810008021416501207047052180F8351000686E
:10082000016821F001010160002070472DE9F843C3
:1008300004464FF00009CDF8009063484FF416517C
:10084000A56D0068B0FBF1F72E6894F85C100820E5
:1008500000FA01F131420FD021680A6852070BD526
:100860000A6822F004020A6094F85C108840A860CC
:10087000606D40F00100606594F85C104FF0010875
:1008800008FA01F0304208D021684969090604D508
:10089000A860606D40F00200606594F85C10042070
:1008A0008840304208D021680968890704D5A860CB
:1008B000606D40F00400606594F85C101020884082
:1008C000304218D021680968090714D5A86020684B
:1008D0000168490304D50068000308D5A16C07E04E
:1008E0000168C90503D4016821F008010160216C89
:1008F00009B12046884794F85C1020208840304297
:1009000031D021680968C9062DD5A86094F8350052
:1009100005282068016806D0490347D50068000310
:100920001DD4616C1CE021F0160101602068416952
:1009300021F080014161206C08B9A06C20B12068D1
:10094000016821F00801016094F85C103F208840A4
:10095000A86084F8349084F83580216D1FE0E16B45
:1009600009B120468847606D00282BD0606DC00714
:1009700014D0052084F835002068016821F00101B9
:1009800001600098401C0090B84203D820680068BD
:10099000C007F6D184F8349084F83580E16C0029E2
:1009A00010D001B02046BDE8F04308470168C905F2
:1009B000D5D4016821F01001016084F8349084F8E6
:1009C0003580CCE7BDE8F8831C0000202DE9F0411C
:1009D000044600F055F906465CB1002584F8345011
:1009E000022084F835002068016821F001010160CF
:1009F0000DE00120BDE8F08100F042F9801B0528E0
:100A000005D920206065032084F83500F2E72068CE
:100A10000068C007F0D12268116820480140D4E97D
:100A200001031843D4E90336334318436369184379
:100A3000A3691843E3691843236A18430843616AAA
:100A4000042903D1D4E90B1319430843106020682B
:100A50004069666A20F0070130460E4301270428EA
:100A60000CD1A06A0643E06A40B12046FFF7D2FCF1
:100A700020B14020606584F83570BAE7206846618F
:100A80002046FFF7B3FC94F85C203F219140816041
:100A9000656584F835700020ACE700003F8010F0F9
:100AA00070470000044910B50A68024202D008608D
:100AB000FFF7F6FF10BD0000143C01402DE9F84F90
:100AC000DFF87CB100224FF001084FF0030A4FF02D
:100AD0000F090BF1040E00BF0B6808FA02F4234063
:100AE000A3426ED14D68022D01D0122D0ED1D50832
:100AF00000EB850CDCF820505607F70E09FA07F6D4
:100B0000B5430E69BE402E43CCF820600668550000
:100B10000F790AFA05FC07F0030726EA0C06AF4036
:100B2000374307604E68012E05D0022E03D0112EE8
:100B300001D0122E0ED18668CF6826EA0C06AF408F
:100B4000374387604668A6430C79C4F30014944089
:100B500034434460C6688C6826EA0C06AC403443D3
:100B6000C4604C68E40065D5364C256845F4804582
:100B70002560246822F0030504F480440094324C7C
:100B80002E19D6F8084895072F0F09FA07F5AC4338
:100B90002E4DA84201D1002524E02D4DA84201D1BF
:100BA00001251FE02B4DA84201D102251AE02A4D54
:100BB000A84201D1032515E0284DA84202D1042501
:100BC00010E037E0264DA84201D105250AE0254D69
:100BD000A84201D1062505E0234DA84201D10725F1
:100BE00000E00825BD402543C6F80858DBF8004062
:100BF0005D464E689C43F60300D51C432C60DEF82E
:100C0000004075464E689C43B60300D51C432C60DB
:100C10000B4D08352C684E689C43F60200D51C43EA
:100C20002C60074D0C352C684E689C43B60200D5ED
:100C30001C432C60521C102AFFF44EAFBDE8F88F05
:100C4000003C0140443802400030014000000240B6
:100C50000004024000080240000C02400010024064
:100C60000014024000180240001C024042694A4041
:100C7000426170470AB1816170470904FBE70000D7
:100C80000148806870470000100000200248816819
:100C90000278114481607047100000200B4810B5A5
:100CA000016841F400710160016841F480610160F4
:100CB000016841F480710160032000F0C7F8002052
:100CC00000F006F800F024F8002010BD003C0240BF
:100CD00070B50D4D04464FF47A712878B1FBF0F0F1
:100CE0000A490968B1FBF0F000F0AFFB48B9102CDD
:100CF00007D200222146501E00F088F800206C60C8
:100D000070BD012070BD0000100000201C000020FC
:100D100010B5072000F09AF8002211466FF00B0082
:100D200000F074F8002211466FF00A0000F06EF82F
:100D3000002211466FF0090000F068F80022114609
:100D4000501F00F063F800221146101F00F05EF8FB
:100D500000221146901E00F059F80022BDE8104014
:100D60001146501E00F052B82DE9F04116460F46CC
:100D7000040004D094F83900002518B107E00120E0
:100D8000BDE8F08184F83850204600F053FF24205D
:100D900084F839002068C16821F40051C160204600
:100DA00001F030FE2068016921F490410161206862
:100DB000416921F02A0141612068016921F00F0198
:100DC000016120680169394301612068C16821F42B
:100DD0000061C1602068C1683143C1602068C1689A
:100DE00041F40051C160E563202084F8390084F8A3
:100DF0003A000020C4E700F01F02012191404009A1
:100E0000800000F1E020C0F800117047F0B40E4BF4
:100E10001B680C46C3F30223C3F10705042D00D958
:100E20000425191D072901D2002300E0DB1E01263D
:100E300006FA05F1491E214099409E40761E164053
:100E40003143F0BC01F064BB0CED00E0064900F05A
:100E5000070208684FF6FF03184040EA0220034AE1
:100E600010430860704700000CED00E00000FA0538
:100E70002DE9F0470E46050065D0DFF81481D8F85B
:100E80000000F7B200F00F00B04207D288F80070FF
:100E9000D8F8000000F00F00B04254D128683D4C53
:100EA000810712D5400703D5206840F4E050206048
:100EB0002878000703D5206840F46040206020684F
:100EC000A96820F0F000084320602878C0072DD0E2
:100ED000304968680839012812D0022813D0032845
:100EE00011D00968890700292DDA216821F0030152
:100EF00001432160FFF7C4FE814641F2883A0EE0CB
:100F000009688903EFE709688901ECE7FFF7B8FE94
:100F1000A0EB0901514502D90320BDE8F087206804
:100F2000696800F00C00B0EB810FEFD1D8F8001029
:100F3000404601F00F01B14207D90770006800F088
:100F40000F00B04201D00120E7E72878400705D51F
:100F50002068E96820F4E050084320602878000702
:100F600006D52068296920F4604040EAC10020606D
:100F700000F03CF82168084AC1F30311515CC840F5
:100F8000064908600020FFF7A3FE0020C5E7000027
:100F9000003C024008380240A02F00081C0000203E
:100FA00001480068704700001C0000200448054903
:100FB00000680968044AC1F38221515CC840704747
:100FC0001C00002008380240B02F000804480549E2
:100FD00000680968044AC1F34231515CC840704757
:100FE0001C00002008380240B02F0008154810B53A
:100FF000006810F00C02144813D04110042A0FD0DE
:10100000082A0ED10F4C241F2268236802F03F02E9
:101010005B0207D52068C0F38810A0FB010106E041
:10102000084610BD2168C1F38811A1FB000100230F
:10103000FFF7C6F82168C1F30141491C4900B0FB24
:10104000F1F010BD083802400024F4002DE9F84FFB
:10105000050076D02878DFF8F8B2BE4CC00749D03A
:10106000DBF800105846C1F38101012908D000685F
:10107000C0F3810002280AD1201D0068400206D575
:101080002068800336D568680028E2D032E06868BE
:10109000B0F5803F10D0B0F5A02F206810D020F41C
:1010A00080302060206820F4802020606868A0B133
:1010B000FFF7E6FD06460CE0206840F48030F4E7D8
:1010C00040F480202060F7E7FFF7DAFD801B6428FA
:1010D00073D820688003F7D50CE0FFF7D1FD0646F2
:1010E00005E000BFFFF7CCFD801B6428F0D8206826
:1010F0008003F7D42878DFF8608280074FF000097A
:101100003ED5DBF80010584611F00C0F09D00068EE
:10111000C0F3810002280BD18D48001F00684002F7
:1011200006D42068800715D5E868012809D111E0A8
:10113000E868B8B10120C8F80000FFF7A1FD064635
:1011400005E002E1FFF79CFD801B0228C0D8206863
:101150008007F7D52068296920F0F80040EAC1002F
:1011600020600DE0C8F80090FFF78AFD064604E015
:10117000FFF786FD801B02281FD820688007F7D460
:101180002878000722D5724E744869696C3671B1AF
:1011900001210160FFF774FD074604E0FFF770FDD1
:1011A000C01B022809D830688007F7D50EE0C0F8C8
:1011B0000090FFF765FD074605E083E0FFF760FD5F
:1011C000C01B02287ED830688007F7D428784007F3
:1011D00068D5DFF87CA100270AF1380ADAF80000A8
:1011E000C0000BD4DAF8001041F08051CAF80010AA
:1011F000DAF80000012700F080500090584E306867
:10120000C00510D4306840F480703060FFF738FDBE
:10121000009005E0FFF734FD0099401A022851D8EC
:101220003068C005F6D54A4EA868683601280FD048
:101230000528306810D020F001003060306820F0C0
:1012400004003060A868B8B1FFF71AFD00900FE005
:10125000306840F00100F4E740F004003060F7E748
:10126000FFF70EFD0099411A41F28830814264D89F
:1012700030688007F4D50EE0FFF702FD009007E02C
:10128000FFF7FEFC0099411A41F28830814254D8A0
:1012900030688007F4D42FB1DAF8001021F08051C3
:1012A000CAF80010A869C0B3DBF80010C1F38101CF
:1012B00002294AD00228484607D0C8F86000FFF744
:1012C000DFFC00E039E005463AE04746C8F8600038
:1012D000FFF7D6FC064604E0FFF7D2FC801B02288D
:1012E0002BD820688001F7D4D5E907010843A96A03
:1012F0001C4A490802EB01416A6A41EA821108432B
:1013000095F82C1040EA01611148001F016001208E
:101310003866FFF7B5FC054605E014E0FFF7B0FCC2
:10132000401B022809D820688001F7D50BE000BFD8
:10133000FFF7A6FC401B022802D90320BDE8F88F66
:1013400020688001F4D40020F8E70120F6E70000CF
:10135000083802400038024000004742800E4742F1
:10136000007000400000FFFF70B5040005D00025AC
:10137000A56294F8510010B106E0012070BD84F818
:101380005050204600F030F8022084F851002068C8
:10139000016821F040010160D4E901010843D4E96A
:1013A00003121143084361690843218B01F4007162
:1013B0000843E1690843216A0843A16A0843216898
:1013C0000860A069042101EA1040616A08432168AD
:1013D00048602068C16921F40061C1616565012030
:1013E00084F85100002070BD00B500680D4987B039
:1013F000884215D10C480021026842F480520260F4
:10140000006800F480500590E02000900220CDE9B3
:1014100001010520CDE9031069460448FFF74EFBA2
:1014200007B000BD003001404438024000000240D7
:101430004FF0E0210428086903D020F0040008617F
:10144000704740F00400FAE7704710B5401EB0F155
:10145000807F01D3012010BD4FF0E02460610F2197
:10146000601701F055F80020A061072020610020DE
:1014700010BD10B5FFF7E8FF10BD7047704730B5DD
:1014800090F83820012A20D0012280F83820022349
:1014900080F8393003685C6824F070045C6003688D
:1014A0005C680D682C435C6003689C6824F08004D1
:1014B0009C6003689C6849680C439C6080F83920F4
:1014C000002180F83810084630BD022030BD10B52C
:1014D000040003D094F8390010B107E0012010BDDA
:1014E000002084F83800204600F00CF8022084F830
:1014F0003900211D206801F0DDF8012084F8390051
:10150000002010BD08B500680649884208D1064889
:10151000016841F008010160006800F008000090D7
:1015200008BD0000000C0040403802400168CA6855
:1015300042F00102CA600068016841F001010160E7
:101540000020704770B5044690F83800012817D085
:10155000012584F83850022084F839002068826818
:1015600022F0770222F47F4282600868502837D048
:101570000DDC202859D005DC88B3102841D151E07A
:10158000022070BD302853D040283AD13FE0602877
:101590002ED070280BD0B0F5805F03D0B0F5005F7F
:1015A0002FD110E02068816821F0070115E0CB6899
:1015B000D1E90121206801F0DDF82168886840F058
:1015C000770088601DE0CB68D1E90121206801F037
:1015D000D1F82068816841F48041816011E01EE00B
:1015E000CA684968206801F08DF95021206806E03A
:1015F000CA684968206801F096F96021206801F006
:10160000C3F884F83950002084F8380070BDCA68E7
:101610004968206801F076F940212068EFE7002151
:101620002068ECE710212068E9E720212068E6E740
:1016300030212068E3E72DE9F0410D46040003D096
:1016400094F8390018B108E00120BDE8F0810020CD
:1016500084F83800204600F039F8022084F8390078
:101660002068816821F007018160211D206801F058
:1016700021F8226890689169166A2B68AF69034364
:1016800040F20330814341EA0721A868EF6908432B
:101690004FF6FC418843E96840EA07200143286986
:1016A0002F6A000140EA0730084369686D6926F037
:1016B000AA0646EA051529439360226890612068CE
:1016C0000162012084F839000020BEE770B501688E
:1016D0002E4800260224012586B0814210D12C48D4
:1016E000016841F0010101600068694600F00100F5
:1016F00005904FF420608DE87100264804952DE098
:101700002348001FB1F1804F19D0234A914229D1BB
:10171000016841F0020101600068694600F00200C2
:10172000059040208DE871001C480494FFF7C6F92D
:1017300020208DE871006946194804940EE0016884
:1017400041F0010101600068694600F00100059068
:1017500048F202008DE8710012480495FFF7AEF9D7
:1017600006B070BD104A9142FAD1016841F00401FF
:1017700001600068694600F0040005904FF4405095
:101780008DE8710009480494E8E70000000001407A
:1017900044380240001002400004004000080240AB
:1017A000000402400000024000080040000C02401B
:1017B000704770B50446006801694FF00005C943E1
:1017C000890715D4C168C943890711D4E91E01618D
:1017D00001202076206880698007204602D0FFF72C
:1017E000E7FF04E000F0C2F8204600F065F9257636
:1017F00020680169C943490717D4C168C94349072B
:1018000013D46FF004010161022020762068806902
:1018100010F4407F204602D0FFF7CAFF04E000F03A
:10182000A5F8204600F048F9257620680169C943EB
:10183000090716D4C168C943090712D46FF008011B
:101840000161042020762068C0698007204602D00C
:10185000FFF7AEFF04E000F089F8204600F02CF915
:10186000257620680169C943C90617D4C168C943F0
:10187000C90613D46FF0100101610820207620689A
:10188000C06910F4407F204602D0FFF791FF04E0CA
:1018900000F06CF8204600F00FF925762068016909
:1018A000C943C90708D1C168C943C90704D1891E02
:1018B0000161204600F001F920680169C943090669
:1018C00009D4C168C943090605D46FF080010161DC
:1018D0002046FFF7D2FD20680169C943490609D4B3
:1018E000C168C943490605D46FF040010161204633
:1018F00000F0E4F820680169C94389060BD4C16887
:10190000C943890607D46FF0200101612046BDE874
:101910007040FFF7B3BD70BD00B5104B02680220E8
:10192000012185B09A4209D160220092CDE90101DE
:10193000039003200490694609480BE0094B9A4242
:101940000AD1D2000092CDE9010103900920049050
:1019500069460548FFF7B2F805B000BD00400140F8
:10196000001002400018004000040240704770B5AB
:10197000044690F838000D4601280DD0012684F861
:101980003860022084F8390042B1042A18D0082AAD
:101990002AD00C2A4DD139E0022070BD206800F019
:1019A000FBFE2068816941F008018161206881693E
:1019B00021F004018161206881692A69114311E0E5
:1019C000206800F015FF2068816941F400618161A1
:1019D0002068816921F480618161206881692A69B8
:1019E00041EA0221816124E0206800F033FF206891
:1019F000C16941F00801C1612068C16921F0040199
:101A0000C1612068C1692A69114311E0206800F0B2
:101A100051FF2068C16941F40061C1612068C1695A
:101A200021F48061C1612068C1692A6941EA02210B
:101A3000C16184F83960002084F8380070BD10B5A9
:101A4000040003D094F8390010B107E0012010BD64
:101A5000002084F83800204600F00CF8022084F8BA
:101A60003900211D206800F025FE012084F839008E
:101A7000002010BD08B500680C49884208D10C4808
:101A8000016841F480310160006800F480300BE0AF
:101A90000849884209D10648001F016841F0400109
:101AA0000160006800F04000009008BD0040014067
:101AB0004438024000180040704770477047704734
:101AC00070B5026804461068D168536910F00F0FB2
:101AD00050D003F0010501F4907635435DD0C20784
:101AE00005D0CA0503D5E26B42F00102E26342076A
:101AF00005D5DA0703D0E26B42F00202E263820707
:101B000005D5DA0703D0E26B42F00402E263020774
:101B100005D5DA0703D0E26B42F00802E263E26B1C
:101B2000002A33D0800604D5880602D5204600F06E
:101B300022FF20684069E16BC0F38010090700D4E0
:101B400028B3204600F009FF2068416949061AD5EC
:101B5000416921F040014161606BA0B11B49016501
:101B6000606BFEF751FE002810D0606B016DBDE880
:101B700070400847830610D58B060ED52046BDE879
:101B8000704000F0F8BE2046FFF799FF70BD204678
:101B9000FFF795FF0020E06370BD030606D50B0636
:101BA00004D52046BDE8704001F082B84006F3D568
:101BB0004806F1D5D168204621F04001D1602021AE
:101BC00084F8391000F0B0F870BD00004B2900080F
:101BD00070B5040004D094F83900002510B106E077
:101BE000012070BD84F83850204600F023F82420EE
:101BF00084F839002068C16821F40051C160204692
:101C000000F000FF2068016921F490410161206823
:101C1000416921F02A0141612068C16841F4005105
:101C2000C160E563202084F8390084F83A00002080
:101C300070BD0000F0B51E4A016800271D4802244F
:101C40000325072687B0914211D1016841F4003184
:101C50000160006802AA00F4003005900C20CDE974
:101C60000004012082E86100694613481BE0134A22
:101C700091421AD1016841F48021016000686946EF
:101C800000F480200590D0148DE89100CDE9035632
:101C90000B48FEF713FF4FF480708DE89100CDE9FB
:101CA000035669460748FEF709FF07B0F0BD00007C
:101CB000004400404038024000000240004800401C
:101CC00000040240000C024090F83A30202B1DD155
:101CD000D1B1CAB190F83830012B17D0816282851A
:101CE000C2850021C163222280F83A2080F8381092
:101CF00001684A6942F001024A610068C16841F422
:101D00009071C16000207047012070470220704729
:101D10001CB5684600F00CFC0248009981600199EE
:101D2000C1601CBD00000020704700007FB52B483B
:101D30002949012501604FF4803100240561C0E983
:101D4000011427490462C0E90A140526C460C0E9E9
:101D5000065605634461FEF7DBFC18B14A2121A059
:101D600000F0E8FF0820CDE90005694602941B4811
:101D7000FEF788FB18B154211AA000F0DBFF022007
:101D8000019069461548FEF77DFB18B15C2115A04E
:101D900000F0D0FF0320019069461048FEF772FB67
:101DA00018B164210FA000F0C5FF0420019069461E
:101DB0000A48FEF767FB18B16C210AA000F0BAFFD1
:101DC000694606480196FEF75DFB002803D07421A2
:101DD00004A000F0AFFF7FBD0020014024000020E0
:101DE0000100000F2E2E2F5372632F6164632E6348
:101DF00000000000054808B5016841F48001016059
:101E0000006800F48000009008BD000030380240F7
:101E10002DE9F04F894887B00024016841F0100196
:101E20000160016801F010010591016841F00401B1
:101E30000160016801F004010591016841F0800131
:101E40000160016801F080010591016841F0010124
:101E50000160016801F001010591016841F0020192
:101E60000160016801F002010591016841F008017B
:101E700001600068002200F0080005904FF2881110
:101E80006F48FEF7F7FE012211466E48FEF7F2FE9C
:101E900000224FF433616B48FEF7ECFE4CF2100A5F
:101EA000002251466848FEF7E5FE4FF4807B002291
:101EB00059466648FEF7DEFE082501200095CDE96B
:101EC000010469465E480394FEF7F8FD0120009086
:101ED000CDE9010469465B480394FEF7EFFD0095E8
:101EE0000225CDE901540526CDE90346694655484A
:101EF000FEF7E4FD012000905548CDE90104694654
:101F00005248FEF7DBFD4FF01008CDF80080CDE918
:101F100001540627CDE9034769464C48FEF7CEFD3C
:101F20004FF43360009001200394CDE90105694628
:101F30004448FEF7C3FD4FF00409CDE9009469461B
:101F400044480294FEF7BAFD4FF280100090012041
:101F50000394CDE9010569463948FEF7AFFD6802F3
:101F60000090CDE90154CDE9034669463948FEF7B2
:101F7000A5FD0120CDF800A0CDE901046946324855
:101F80000394FEF79BFD4FF4A4500090CDE901545B
:101F9000CDE9034769462B48FEF790FD0120CDF8B7
:101FA00000B00394CDE9010569462848FEF786FD97
:101FB0002802CDE90004694624480294FEF77EFD1C
:101FC0004FF4E0500090CDE901540A20CDE90340E0
:101FD00069461E48FEF772FD1F4E4C20CDE90006F3
:101FE000694602941848FEF769FD2020CDE90004F7
:101FF000694615480294FEF761FDCDF80080CDE9F1
:10200000016469461348FEF759FD4FF410700090C3
:102010001220019002AA012082E8110269460D48AF
:10202000FEF74CFD0D480095CDE9010469460448D2
:10203000FEF744FD07B0BDE8F08F000030380240E5
:102040000010024000080240000C02400000024064
:1020500000001110000402400000211000001210C6
:1020600010B5002211460820FEF7D0FE0820FEF72A
:10207000C2FE002211460920FEF7C8FE0920FEF725
:10208000BAFE002211460A20FEF7C0FE0A20FEF723
:10209000B2FE002211461220FEF7B8FE1220FEF713
:1020A000AAFE002211461720FEF7B0FE1720FEF709
:1020B000A2FE002211462620FEF7A8FE2620FEF7EB
:1020C0009AFE002211463220FEF7A0FE3220FEF7D3
:1020D00092FE002211463820FEF798FEBDE810401F
:1020E0003820FEF788BE0000104810B50E49016088
:1020F0004FF48271416000218160C1604FF4007231
:102100000161C0E90512C1610162416281620A2177
:10211000C162FFF729F9002805D0BDE8104045212C
:1021200003A000F007BE10BD00300140CC0000202D
:102130002E2E2F5372632F7370692E6300000000E0
:1021400010B51A4888B018490024C0E9001444F2B8
:102150009F11C0E902410461FFF771FC20B140F218
:10216000091113A000F0E6FD6020CDE900040294FF
:10217000002269460D480494FFF7F9FB20B14FF4A3
:1021800089710BA000F0D6FD042269460748FFF7CD
:10219000EEFB20B140F2171105A000F0CBFD034883
:1021A000FFF7BAFB08B010BD001800408C020020F9
:1021B0002E2E2F5372632F74696D2E630000000062
:1021C00010B518488CB016490024C0E90014C91491
:1021D000C0E90241046144610320CDE9000401200B
:1021E000CDE9020405210491CDE90540CDE907417F
:1021F00069460C48FFF71FFA18B150210AA000F0F9
:1022000099FD099409A907480A94FFF738F90028AD
:1022100003D0572104A000F08DFD0CB010BD0000CC
:1022200000000140240100202E2E2F5372632F74D2
:10223000696D2E630000000010B515488CB04FF09A
:1022400080410024C0E900148460C460046101205E
:10225000CDE90004CDE902040494CDE905400794DA
:1022600069460B480894FFF7E6F918B1712109A0F7
:1022700000F060FD099409A905480A94FFF7FFF8EA
:10228000002803D0782103A000F054FD0CB010BD4D
:10229000600100202E2E2F5372632F74696D2E6300
:1022A0000000000010B516488CB014490024C0E9A5
:1022B00000148460C46004610120CDE90004CDE90C
:1022C00002040494CDE90540079469460C4808943B
:1022D000FFF7B1F918B192210AA000F02BFD099483
:1022E00009A907480A94FFF7CAF8002803D09921E2
:1022F00004A000F01FFD0CB010BD00000004004061
:102300009C0100202E2E2F5372632F74696D2E6353
:102310000000000010B516488CB014490024C0E934
:1023200000148460C46004610120CDE90004CDE99B
:1023300002040494CDE90540079469460C480894CA
:10234000FFF779F918B1B3210AA000F0F3FC099462
:1023500009A907480A94FFF792F8002803D0BA2188
:1023600004A000F0E7FC0CB010BD00000008004025
:10237000D80100202E2E2F5372632F74696D2E63A7
:102380000000000010B5174886B01549016045F2FD
:1023900007210024C0E90114C721C0E90314FFF795
:1023A00096F818B1CC2110A000F0C4FC4FF4805076
:1023B000009069460B48FFF7C5F818B1D2210AA072
:1023C00000F0B8FC049404A906480594FFF757F8F8
:1023D000002803D0D92104A000F0ACFC06B010BD49
:1023E000000C0040140200202E2E2F5372632F7415
:1023F000696D2E630000000010B5194888B01749B8
:102400000024C0E9001448F23F31C0E902410461F0
:10241000FFF715FB18B1E92112A000F08BFC60203A
:10242000CDE900040294002269460D480494FFF7A8
:102430009EFA18B1F2210BA000F07CFC0422694640
:102440000748FFF794FA18B1F72106A000F072FCD4
:102450000348FFF761FA08B010BD000000400140DA
:10246000500200202E2E2F5372632F74696D2E633D
:10247000000000000D4810B50B4901604FF4E13138
:102480004160002181600C22C160C0E904128161B9
:10249000C161FFF79DFB002805D0BDE81040452134
:1024A00003A000F047BC10BD00440040C80200205B
:1024B0002E2E2F5372632F75736172742E6300007A
:1024C0000E4810B50C4901604FF4E1314160002124
:1024D00081600C22C160C0E9041281610A46C161B9
:1024E000FEF742FC002805D0BDE81040582104A0AA
:1024F00000F020BC10BD0000004800400803002090
:102500002E2E2F5372632F75736172742E63000029
:102510000907090E002806DA00F00F0000F1E0209C
:1025200080F8141D704700F1E02080F80014704717
:1025300070B5124906460A785B2A02D1C8795D282F
:1025400005D00FA000F0F8FB3560746070BD60F33B
:102550001F64487862F3070560F30F25887860F3FD
:102560001745C87860F31F65087960F30704487958
:1025700060F30F24887960F31744E5E7000000203A
:102580004672616D65206572726F72210A000000EB
:1025900010B5FEF77BFBBDE81040FEF76ABF0000F8
:1025A00030B5254893B00025016841F080510160A5
:1025B000006800F0805011902048016841F480418B
:1025C00001600068022400F4804011900120009016
:1025D000000401908001CDE90640082008904FF4E6
:1025E000A870CDE9090407200B906846FEF72EFD80
:1025F00000B1FEE70CA90F2081E831004FF4A05094
:102600000F904FF48050109005210CA8FEF730FC7D
:1026100000B1FEE7FEF7C4FC4FF47A71B0FBF1F0B5
:10262000FEF713FF0420FEF703FF00221146501EA1
:10263000FEF7ECFB13B030BD4038024000700040A4
:102640001048016841F4700101600F48016841F0D1
:10265000010101600C4A00210832116002680B4B35
:102660001A400260031D0A4A1A60026822F480229E
:10267000026005480C300160024958068039086044
:102680007047000088ED00E000380240FFFFF6FED2
:102690001030002410B50548FFF78BF8BDE8104056
:1026A0004FF480410248FEF7E1BA00001402002016
:1026B000000C0240F0B50268234B244D244E254FF8
:1026C000254C4FF0804C984209D0604507D0A84275
:1026D00005D0B04203D0B84201D0A04204D122F0CC
:1026E000700E4A6842EA0E0298421BD0604519D02B
:1026F000A84217D0B04215D0B84213D0A04211D092
:10270000164DA8420ED0164DA8420BD0154DA8422A
:1027100008D0154DA84205D0144DA84202D0144D42
:10272000A84203D122F44075CA682A4302608A682D
:10273000C2620A688262984201D0A04201D109694E
:10274000016301214161F0BD00000140000400402F
:1027500000080040000C004000040140004001401F
:10276000004401400048014000180040001C0040A7
:102770000020004010B5846842EA032224F47F441C
:102780000A432243826010BD826822F070020A432D
:1027900042F007018160704730B5026A22F0010201
:1027A0000262026A436884690D6824F07304254359
:1027B00022F002048A6822430B4CA04202D00B4C48
:1027C000A0420BD122F00804CA6823F440732243CC
:1027D0004C6922F004021C438B69234343608561EA
:1027E00049684163026230BD0000014000040140BD
:1027F00030B5026A22F010020262026A43688469FC
:102800000D6824F4E64444EA05248D6822F0200291
:1028100042EA05120D4DA84202D00D4DA8420ED13C
:10282000CD6822F0800242EA05124D6923F440632C
:1028300043EA85038D6922F0400243EA8503436041
:10284000846149688163026230BD0000000001407C
:102850000004014030B5026A22F480720262036A09
:102860004268C46923F4007324F073050C682C4398
:102870008D6843EA05230D4DA84202D00C4DA842B5
:102880000ED1CD6823F4006343EA05234D6922F499
:10289000405242EA05128D6923F4806342EA051230
:1028A0004260C4614968C163036230BD00000140F9
:1028B0000004014030B5026A22F480520262046AC8
:1028C0004268C3690D6823F4E64343EA05238D6833
:1028D00024F4005444EA0534084DA84202D0084DBF
:1028E000A84204D14D6922F4804242EA8512426036
:1028F000C36149680164046230BD0000000001400A
:102900000004014010B5036A046A24F00104046263
:10291000846924F0F00444EA021423F00A020A4312
:102920008461026210BD10B5036A23F010030362D4
:102930008369046A23F4704343EA023224F0A0035B
:1029400043EA01118261016210BD10B5806B002164
:10295000C185C184FFF7B3F810BD0168CA6822F4CD
:102960009072CA6001684A6922F001024A6120211E
:1029700080F83A10704710B590F83A10222901D02B
:10298000022010BD8168B1F5805F11D00169002976
:1029900001681FD0496801F07F03816A4A1C826286
:1029A0000B70C18D491E0904090CC18518D026E0A1
:1029B0000269816A002A0268526805D0D2B20A8090
:1029C000816A491C8162ECE7C2F308020A80816ACD
:1029D000891CF7E74A68816A4B1C83620A70E0E74A
:1029E0000168CA6822F49072CA6001684A6922F0DC
:1029F00001024A61202180F83A10FFF789F900208E
:102A000010BD00002DE9F04104460068016921F481
:102A10004052E168114301612168C86849F20C62C3
:102A200090432369A268E5691A4363692B431A43FB
:102A30000243CA602168486920F44072A0691043CB
:102A40004861E1696425B1F5004F9748974A2168CC
:102A50004FF032083FD0914201D081427CD1FEF745
:102A6000B5FA00EBC00101EB001061688900B0FB12
:102A7000F1F6FEF7ABFA00EBC00101EB0010616864
:102A80008900B0FBF1F0B0FBF5F06FF0180148439E
:102A900006EB800108EB0110B0FBF5F000F0F0064A
:102AA000FEF794FA00EBC00101EB001061688900A9
:102AB000B0FBF1F0B0FBF5F006EB0016FEF786FA7E
:102AC00000EBC00101EB001061688900B0FBF1F779
:102AD000FEF77CFAD2E0914201D081423DD1FEF76F
:102AE00075FA00EBC00101EB001061684900B0FB12
:102AF000F1F0B0FBF5F00601FEF768FA00EBC0015B
:102B000001EB001061684900B0FBF1F7FEF75EFAD7
:102B100000EBC00101EB001061684900B0FBF1F06F
:102B2000B0FBF5F06FF01801484307EB800108EBAC
:102B3000C100B0FBF5F000F0F80006EB4006FEF730
:102B400045FA00EBC00101EB001061684900B0FBE1
:102B5000F1F7FEF73BFA3CE055E0FEF727FA00EB11
:102B6000C00101EB001061684900B0FBF1F0B0FB5F
:102B7000F5F00601FEF71AFA00EBC00101EB0010B8
:102B800061684900B0FBF1F7FEF710FA00EBC001F5
:102B900001EB001061684900B0FBF1F0B0FBF5F00B
:102BA0006FF01801484307EB800108EBC100B0FB50
:102BB000F5F000F0F80006EB4006FEF7F7F900EB41
:102BC000C00101EB001061684900B0FBF1F7FEF7AE
:102BD000EDF900EBC00101EB001061684900B0FBAA
:102BE000F1F0B0FBF5F06FF01801484307EB8001FE
:102BF00008EBC100B0FBF5F000F00700216830449D
:102C00008860BDE8F081FEF7D1F900EBC00101EB6F
:102C1000001061688900B0FBF1F6FEF7C7F900EB20
:102C2000C00101EB001061688900B0FBF1F0B0FB5E
:102C3000F5F06FF01801484306EB800108EB011036
:102C4000B0FBF5F000F0F006FEF7B0F900EBC001C4
:102C500001EB001061688900B0FBF1F0B0FBF5F00A
:102C600006EB0016FEF7A2F900EBC00101EB001025
:102C700061688900B0FBF1F7FEF798F900EBC0013D
:102C800001EB001061688900B0FBF1F0B0FBF5F0DA
:102C90006FF01801484307EB800108EB0110B0FB0F
:102CA000F5F000F00F00A9E700140140001001400A
:102CB00090F83910212901D0022070478168B1F5C0
:102CC000805F016A0BD04A1C026202680978516079
:102CD000C18C491E0904090CC1840ED017E0098873
:102CE0000268C1F30801516001690029016A02D03C
:102CF000491C0162ECE7891CFBE70168CA6822F005
:102D00008002CA600068C16841F04001C1600020D3
:102D10007047000010B50548FEF7D2FEBDE8104030
:102D2000082203490148FEF7CFBF0000C802002077
:102D300000000020FEE700000FB4054B10B503A90A
:102D4000044A029800F018F810BC5DF814FB00006B
:102D5000CD2E00082000002002E008C8121F08C184
:102D6000002AFAD170477047002001E001C1121F0C
:102D7000002AFBD1704700002DE9FF4F89B09B4628
:102D80000446002506E025280BD05A460B999047AB
:102D9000641C6D1C20780028F5D10DB02846BDE8D4
:102DA000F08F0027B8460122474900E0074314F896
:102DB000013F203B02FA03F00842F7D120782E2889
:102DC00019D114F8010F47F004072A280ED06FF02C
:102DD0002F022078A0F1300109290CD808EB8801D6
:102DE00002EB410100EB0108641CF2E70A98641C45
:102DF00050F8048B0A9020780028CED0642808D0A0
:102E0000692806D075281ED05A460B9990476D1C2C
:102E100058E00A994FF00A0901C90A91002802DA1C
:102E200040422D2102E0390504D52B218DF82010D8
:102E3000012103E0F90704D02021F7E78A4608AE14
:102E40000DE00021FAE70A994FF00A0901C90A9139
:102E5000F7E74946FDF7E5F9303106F8011D00288E
:102E6000F7D1ADEB060000F12009780701D44FF04F
:102E70000108C84502DDA8EB090000E000208046FB
:102E8000002706E008A85A46C05D0B9990476D1CC4
:102E90007F1C5745F6DB04E030205A460B999047DB
:102EA0006D1CB8F10001A8F10108F5DC05E016F889
:102EB000010B5A460B9990476D1CB9F10001A9F11D
:102EC0000109F4DC641C65E7092801000849096868
:102ED000C90706D0064980390968CA074FF0604122
:102EE00001D1704700BF0A68002AFBD00870704704
:102EF000800E00E01CB5FDF7D1FEFFF751FBFEF799
:102F000087FFFEF777FFFEF711FFFFF7EDF8FFF7FA
:102F100057F9FFF791F9FFF7C5F9FFF7FBF9FFF74D
:102F20006BFAFFF70DF9FFF7A5FAFFF7C9FAFFF7FC
:102F300029FAFFF795F80CA0FFF7FEFE7F210FA0FE
:102F4000FFF7FAFE082269460D48FEF7BDFE0D4860
:102F5000FEF7ECFA0C4C60783128FCD194F90210A1
:102F60000AA0FFF7E9FEF6E7506F6F4E696D204645
:102F700069726D776172650A0000000025690A00B8
:102F8000C80200201402002008000020446174617F
:102F90003A2025690A0000000006101600061016E7
:102FA00000000000000000000102030406070809F9
:102FB0000000000001020304D82F000800000020D8
:102FC00024000000582D0008FC2F000824000020D9
:102FD00024070000682D0008000000000000000029
:102FE00000000000000000000100000010000000D0
:0C2FF000000000000024F40000000000BD
:040000050800018965
:00000001FF
