:020000040800F2
:10000000280800209D010008A5010008A70100089C
:10001000A9010008AB010008AD01000800000000C4
:10002000000000000000000000000000AF01000818
:10003000B101000800000000B3010008252E0008EF
:10004000B7010008B7010008B7010008B7010008B0
:10005000B7010008B7010008B7010008B7010008A0
:10006000B9080008BF080008C5080008B701000863
:10007000B7010008B7010008B7010008B701000880
:10008000B7010008B701000801070008B701000820
:10009000B7010008B7010008B7010008CB08000845
:1000A000B7010008B7010008B7010008B701000850
:1000B000B7010008B7010008B7010008B701000840
:1000C000B7010008B7010008B7010008B701000830
:1000D000B7010008B70100085D360008B701000845
:1000E000B7010008B7010008B7010008B701000810
:1000F000B7010008B7010008B7010008B701000800
:10010000B7010008B7010008292F0008B70100084F
:10011000B7010008B7010008B7010008B7010008DF
:1001200031080008B7010008B7010008B70100084E
:10013000B7010008B7010008B7010008B7010008BF
:10014000B7010008B7010008B7010008B7010008AF
:10015000B7010008B7010008B7010008B70100089F
:10016000B7010008B7010008B7010008B70100088F
:10017000B7010008B7010008B7010008000000003F
:10018000B7010008B7010008DFF80CD000F036FA1C
:1001900000480047B13F0008280800200648804773
:1001A00006480047FEE7FEE7FEE7FEE7FEE7FEE75C
:1001B000FEE7FEE7FEE7FEE7D52E0008890100080E
:1001C0002DE9F05F0546002092469B46884606468C
:1001D000814640241BE0284641464746224600F01F
:1001E00045F853465A46C01A914110D31146184655
:1001F000224600F02CF82D1A67EB01084F462246E4
:100200000120002100F023F817EB00094E41201EC9
:10021000A4F10104DFDC484631462A464346BDE8E6
:10022000F09F30B50B46014600202022012409E052
:1002300021FA02F59D4205D303FA02F5491B04FA9F
:1002400002F52844151EA2F10102F1DC30BD202A7E
:1002500004DB203A00FA02F1002070479140C2F11D
:10026000200320FA03F3194390407047202A04DB4F
:10027000203A21FA02F00021704721FA02F3D0401F
:10028000C2F1200291400843194670472DE9FE4F04
:10029000804681EA0300C00F0C46009021F0004127
:1002A00023F00045B8EB0200A94105D240462146A3
:1002B00090461C460B46024623F00040104347D0B0
:1002C000270DC7F30A00C3F30A510290401A0190A8
:1002D00040286BDAC3F3130040F4801B0098924669
:1002E00020B10023D2EB030A63EB0B0B01985946B4
:1002F000C0F140025046FFF7AAFF06460D465046A1
:100300005946019A00F08CF910EB08006141002475
:1003100087EA115284EAE7731A4340D0009A62B325
:10032000019A012A4FEA075215DC001B61EB02011A
:100330004FF0004202EA0752CDE90042001C41F5AD
:10034000801132462B4600F08CF903B0BDE8F08FE7
:1003500040462146F9E7001B61EB0201001C41F514
:10036000801300185B412018A2F5001747EB03012A
:1003700040EAD570B6196D4111E06D084FEA3606B6
:1003800045EAC0754FEA0752001B61EB0201001CF1
:1003900041F5801149084FEA3000001951413246B9
:1003A0002B4603B0BDE8F04F00F04CB90098012295
:1003B00040000023D0EB020263EBE073009821467B
:1003C0004FEAE074B8EB000061EB0401E9E783F069
:1003D00000435BE781F0004158E72DE9FE4F81EAD9
:1003E000030404F0004421F0004100944FF0000B9E
:1003F00023F0004350EA01045ED052EA03045BD0CC
:10040000C3F30A54C1F30A552C44A4F2F334019403
:10041000A0FB0254C1F3130141F48011C3F3130391
:1004200043F4801301FB024400FB034E840A970A45
:1004300044EA815447EA8357A4FB076802958D0A72
:1004400005FB07854FEA932C04FB0C542705029DFE
:100450004FEA065847EA1637B5EB08056EEB070C6E
:10046000870E920E47EA811742EA8312A7FB020128
:10047000B6EB0B0164EB00042B0D43EA0C335E1862
:1004800044EB1C50DA465146E7FB0201C5F3130466
:100490004FEA0B3343EA14534FEA0432019C43EA18
:1004A0000603A4F10C040294009CCDE900B400F012
:1004B000D8F803B0BDE8F08F00200146F9E72DE938
:1004C000F04D81EA030404F0004B21F0004514468E
:1004D0004FF0000A23F0004150EA050220D054EA10
:1004E00001021DD0C5F30A570246C5F31303C1F339
:1004F0001300C1F30A5640F4801543F48013A7EBB0
:100500000608101BD64608F2FD3873EB050002D32F
:1005100008F1010801E092185B41B8F1000F03DA1D
:1005200000200146BDE8F08D00204FF48011064602
:1005300084460EE0171B73EB050705D3121B63EB14
:10054000050306434CEA010C49084FEA30009218B3
:100550005B4150EA0107EDD152EA030012D082EA72
:10056000040083EA0501084305D0101BAB4106D205
:100570000122002306E000224FF0004302E06FF06A
:10058000010253101AEB06004CEB085110EB0A0065
:1005900041EB0B01BDE8F04D00F054B8C1F30A5235
:1005A000C1F3130140F2FF3341F480119A4202DAA1
:1005B00000200146704740F233439A42A2F2334290
:1005C00002DC5242FFF752BEFFF741BE30B5041EB7
:1005D00071F1000404DB4FF00044404264EB010180
:1005E000141E73F1000405DB1C464FF00043524219
:1005F00063EB0403994208BF904230BD064C074D9F
:1006000006E0E06840F0010394E8070098471034E2
:10061000AC42F6D3FFF7BCFD7840000898400008D4
:10062000202A06DBCB17203A41FA02F043EAE073B6
:1006300006E041FA02F3D040C2F1200291400843A3
:100640001946704710B5141E73F1000408DA401CF7
:1006500041F1000192185B411A4301D120F00100E1
:1006600010BD2DE9F04D92469B4611B1B1FA81F2D1
:1006700002E0B0FA80F220329046FFF7E8FD04462F
:100680000F4640EA0A0041EA0B0153465A46084326
:1006900013D0114653EA010019D0C8F14002504668
:1006A000FFF7E4FD05460E46504659464246FFF721
:1006B000CEFD084305D0012004E020463946BDE8C0
:1006C000F08D0020054346EAE0762C4337430A9834
:1006D0006305E40AA0EB08000022FD0A44EA47543F
:1006E0000A3002D500200146E9E7010510196941E9
:1006F000DDE9084500196941BDE8F04DA2E70000B9
:10070000014800F08FB9000024000020454910B5D1
:100710004A6822F440324A604A6843681A434A6091
:1007200001684A6822F480724A6001684A68036975
:1007300042EA03224A6001684A6822F040724A6035
:1007400001684A6883681A434A6001688A6822F42B
:1007500000628A6001688A68C3681A438A60816A95
:100760006FF07062D14201688A6822F070628A601C
:1007700001688A680CD0836A1A438A6001688A68B3
:1007800022F040528A6001688A68C36A1A4301E015
:1007900022F040528A6001688A6822F002028A6070
:1007A00001688A68836942EA43028A60016A002913
:1007B00001684A680FD042F400624A6001684A68E2
:1007C00022F460424A6001684A68174C436A04EBAD
:1007D00043331A4301E022F400624A600168CA6AA6
:1007E00022F47002CA620168CA6A838B0F4C04EB60
:1007F00003531A43CA6201688A6822F400728A604D
:1008000001688A68036B42EA43228A6001688A6849
:1008100022F480628A6001688A68406942EA802026
:10082000886010BD0023014000E0FFFF0000F0FFE2
:10083000014800F023BA00006C0000200168182372
:10084000CAB2103AB2FBF3F2054B6FF30901032A67
:100850009B5CC36500D9091D81650846704700008F
:100860005840000810B5014600208B698A6A4FF095
:10087000C07453B1B3F5005F15D072B1012A0CD02A
:10088000022A0AD0032A09D104E01AB1012A06D0AB
:10089000022A03D1C96AC90100D5012010BDC96A65
:1008A000A142FAD010BD002AF7D0012AF2D0022AC4
:1008B000F3D0032AF3D010BD042000F01BBB0820A6
:1008C00000F018BB102000F015BB402000F012BB58
:1008D0007047000078B50024009490F83C20012A6D
:1008E00019D0012280F83C200A6807230568092AEC
:1008F00013D9EE680A3A02EB420293409E43EE603F
:100900000B788A680A3B03EB43039A400368DD686F
:100910002A43DA6010E0022078BD2E6902EB420221
:1009200093409E432E610B788A6803EB43039A4001
:1009300003681D692A431A614A681F23072A13D2D4
:1009400005686E6B521E02EB820293409E436E63FB
:100950000B790A885B1E92B203EB83039A4003680B
:100960005D6B2A435A6327E005680D2A12D22E6B6D
:10097000D21F02EB820293409E432E630B790A88BA
:10098000DB1F92B203EB83039A4003681D6B2A437B
:100990001A6311E0EE6A0D3A02EB820293409E4325
:1009A000EE620B790A880D3B92B203EB83039A4007
:1009B0000368DD6A2A43DA62164B0568144A9D42D1
:1009C00006D10D68122D03D1556845F48005556098
:1009D00005689D4218D10B68102B01D0112B13D143
:1009E000536843F400035360096810290CD10A4985
:1009F0000A4A0968B1FBF2F101EB8101490000E00C
:100A0000491E00910029FBD180F83C40002078BDB0
:100A100000230140002001401C00002040420F0044
:100A20007047704770B50446006801684268C1F3BA
:100A30004001C2F3401251B34AB3216CC90603D43A
:100A4000216C41F400712164816811F0405F17D17D
:100A5000A169A9B9C16A11F4700F02D08168490572
:100A60000ED4416821F020014160206C20F4807098
:100A70002064206CC00403D4206C40F0010020648A
:100A80002046FFF7CDFF21686FF012000860206854
:100A900001684268C1F38001C2F3C01289B382B316
:100AA000216CC90603D4216C41F400512164816892
:100AB00011F4401F1ED1816B11F4401F02D08168D8
:100AC000490517D44168490514D4816811F0405F85
:100AD00010D1A16971B9416821F080014160206C99
:100AE00020F480502064206CC00503D4206C40F0BA
:100AF000010020642046FFF7EBFE21686FF00C0038
:100B0000086020680168426811F0010FC2F380128A
:100B10000ED06AB10068C0070AD0206C40F4803063
:100B20002064204600F046F821686FF0010008605C
:100B3000206801684268C1F34011C2F38062002955
:100B40000DD0002A0BD0616C41F0020161646FF09E
:100B5000200505602046FFF764FF2068056070BD32
:100B600070B504004FF0000503D0206C002610B1D2
:100B700007E0012070BD666484F83C60204600F008
:100B80001BF8206CC00610D4206C20F4885040F074
:100B9000020020642046FFF7B9FD6664206C20F057
:100BA000020040F00100206400E0012584F83C6070
:100BB000284670BD7047000070B5064600681C49A5
:100BC00086B0884231D11B480025016841F480710C
:100BD00001600068032400F48070059006208DE811
:100BE00031006946144800F091F9009469461348B1
:100BF000CDE9014500F08AF9124C1148C4E900051D
:100C00000015A560C4E90350400060618000C4E99C
:100C1000060525622046656200F000F918B1A3219F
:100C200009A002F035FDB463A66306B070BD0000F4
:100C30000020014044380240000802400004024005
:100C4000106402406C0000202E2E2F5372632F611F
:100C500064632E630000000090F83510022903D071
:100C60008021416501207047052180F8351000681A
:100C7000016821F001010160002070472DE9F8436F
:100C800004464FF00009CDF8009063484FF4165128
:100C9000A56D0068B0FBF1F72E6894F85C10082091
:100CA00000FA01F131420FD021680A6852070BD5D2
:100CB0000A6822F004020A6094F85C108840A86078
:100CC000606D40F00100606594F85C104FF0010821
:100CD00008FA01F0304208D021684969090604D5B4
:100CE000A860606D40F00200606594F85C1004201C
:100CF0008840304208D021680968890704D5A86077
:100D0000606D40F00400606594F85C10102088402D
:100D1000304218D021680968090714D5A8602068F6
:100D20000168490304D50068000308D5A16C07E0F9
:100D30000168C90503D4016821F008010160216C34
:100D400009B12046884794F85C1020208840304242
:100D500031D021680968C9062DD5A86094F83500FE
:100D600005282068016806D0490347D500680003BC
:100D70001DD4616C1CE021F01601016020684169FE
:100D800021F080014161206C08B9A06C20B120687D
:100D9000016821F00801016094F85C103F20884050
:100DA000A86084F8349084F83580216D1FE0E16BF1
:100DB00009B120468847606D00282BD0606DC007C0
:100DC00014D0052084F835002068016821F0010165
:100DD00001600098401C0090B84203D82068006869
:100DE000C007F6D184F8349084F83580E16C00298E
:100DF00010D001B02046BDE8F04308470168C9059E
:100E0000D5D4016821F01001016084F8349084F891
:100E10003580CCE7BDE8F8831C0000202DE9F041C7
:100E2000044600F055F906465CB1002584F83450BC
:100E3000022084F835002068016821F0010101607A
:100E40000DE00120BDE8F08100F042F9801B05288B
:100E500005D920206065032084F83500F2E720687A
:100E60000068C007F0D12268116820480140D4E929
:100E700001031843D4E90336334318436369184325
:100E8000A3691843E3691843236A18430843616A56
:100E9000042903D1D4E90B131943084310602068D7
:100EA0004069666A20F0070130460E430127042896
:100EB0000CD1A06A0643E06A40B12046FFF7D2FC9D
:100EC00020B14020606584F83570BAE7206846613B
:100ED0002046FFF7B3FC94F85C203F2191408160ED
:100EE000656584F835700020ACE700003F8010F0A5
:100EF00070470000044910B50A68024202D0086039
:100F0000FFF7F6FF10BD0000143C01402DE9F84F3B
:100F1000DFF87CB100224FF001084FF0030A4FF0D8
:100F20000F090BF1040E00BF0B6808FA02F423400E
:100F3000A3426ED14D68022D01D0122D0ED1D508DD
:100F400000EB850CDCF820505607F70E09FA07F67F
:100F5000B5430E69BE402E43CCF8206006685500AC
:100F60000F790AFA05FC07F0030726EA0C06AF40E2
:100F7000374307604E68012E05D0022E03D0112E94
:100F800001D0122E0ED18668CF6826EA0C06AF403B
:100F9000374387604668A6430C79C4F30014944035
:100FA00034434460C6688C6826EA0C06AC4034437F
:100FB000C4604C68E40065D5364C256845F480452E
:100FC0002560246822F0030504F480440094324C28
:100FD0002E19D6F8084895072F0F09FA07F5AC43E4
:100FE0002E4DA84201D1002524E02D4DA84201D16B
:100FF00001251FE02B4DA84201D102251AE02A4D00
:10100000A84201D1032515E0284DA84202D10425AC
:1010100010E037E0264DA84201D105250AE0254D14
:10102000A84201D1062505E0234DA84201D107259C
:1010300000E00825BD402543C6F80858DBF800400D
:101040005D464E689C43F60300D51C432C60DEF8D9
:10105000004075464E689C43B60300D51C432C6087
:101060000B4D08352C684E689C43F60200D51C4396
:101070002C60074D0C352C684E689C43B60200D599
:101080001C432C60521C102AFFF44EAFBDE8F88FB1
:10109000003C014044380240003001400000024062
:1010A0000004024000080240000C02400010024010
:1010B0000014024000180240001C024042694A40ED
:1010C000426170470AB1816170470904FBE7000083
:1010D00001488068704700001000002002488168C5
:1010E0000278114481607047100000200B4810B551
:1010F000016841F400710160016841F480610160A0
:10110000016841F480710160032000F0C7F80020FD
:1011100000F006F800F024F8002010BD003C02406A
:1011200070B50D4D04464FF47A712878B1FBF0F09C
:101130000A490968B1FBF0F000F0AFFB48B9102C88
:1011400007D200222146501E00F088F800206C6073
:1011500070BD012070BD0000100000201C000020A8
:1011600010B5072000F09AF8002211466FF00B002E
:1011700000F074F8002211466FF00A0000F06EF8DB
:10118000002211466FF0090000F068F800221146B5
:10119000501F00F063F800221146101F00F05EF8A7
:1011A00000221146901E00F059F80022BDE81040C0
:1011B0001146501E00F052B82DE9F04116460F4678
:1011C000040004D094F83900002518B107E001208C
:1011D000BDE8F08184F83850204600F099FF2420C3
:1011E00084F839002068C16821F40051C1602046AC
:1011F00002F0ACF82068016921F490410161206897
:10120000416921F02A0141612068016921F00F0143
:10121000016120680169394301612068C16821F4D6
:101220000061C1602068C1683143C1602068C16845
:1012300041F40051C160E563202084F8390084F84E
:101240003A000020C4E700F01F020121914040094C
:10125000800000F1E020C0F800117047F0B40E4BA0
:101260001B680C46C3F30223C3F10705042D00D904
:101270000425191D072901D2002300E0DB1E0126E9
:1012800006FA05F1491E214099409E40761E1640FF
:101290003143F0BC01F086BD0CED00E0064900F0E2
:1012A000070208684FF6FF03184040EA0220034A8D
:1012B00010430860704700000CED00E00000FA05E4
:1012C0002DE9F0470E46050065D0DFF81481D8F807
:1012D0000000F7B200F00F00B04207D288F80070AB
:1012E000D8F8000000F00F00B04254D128683D4CFF
:1012F000810712D5400703D5206840F4E0502060F4
:101300002878000703D5206840F4604020602068FA
:10131000A96820F0F000084320602878C0072DD08D
:10132000304968680839012812D0022813D00328F0
:1013300011D00968890700292DDA216821F00301FD
:1013400001432160FFF7C4FE814641F2883A0EE076
:1013500009688903EFE709688901ECE7FFF7B8FE40
:10136000A0EB0901514502D90320BDE8F0872068B0
:10137000696800F00C00B0EB810FEFD1D8F80010D5
:10138000404601F00F01B14207D90770006800F034
:101390000F00B04201D00120E7E72878400705D5CB
:1013A0002068E96820F4E0500843206028780007AE
:1013B00006D52068296920F4604040EAC100206019
:1013C00000F03CF82168084AC1F30311515CC840A1
:1013D000064908600020FFF7A3FE0020C5E70000D3
:1013E000003C024008380240604000081C00002019
:1013F00001480068704700001C00002004480549AF
:1014000000680968044AC1F38221515CC8407047F2
:101410001C000020083802407040000804480549BC
:1014200000680968044AC1F34231515CC840704702
:101430001C0000200838024070400008154810B514
:10144000006810F00C02144813D04110042A0FD089
:10145000082A0ED10F4C241F2268236802F03F0295
:101460005B0207D52068C0F38810A0FB010106E0ED
:10147000084610BD2168C1F38811A1FB00010023BB
:10148000FEF79EFE2168C1F30141491C4900B0FBF3
:10149000F1F010BD083802400024F4002DE9F84FA7
:1014A000050076D02878DFF8F8B2BE4CC00749D0E6
:1014B000DBF800105846C1F38101012908D000680B
:1014C000C0F3810002280AD1201D0068400206D521
:1014D0002068800336D568680028E2D032E068686A
:1014E000B0F5803F10D0B0F5A02F206810D020F4C8
:1014F00080302060206820F4802020606868A0B1DF
:10150000FFF7E6FD06460CE0206840F48030F4E783
:1015100040F480202060F7E7FFF7DAFD801B6428A5
:1015200073D820688003F7D50CE0FFF7D1FD06469D
:1015300005E000BFFFF7CCFD801B6428F0D82068D1
:101540008003F7D42878DFF8608280074FF0000925
:101550003ED5DBF80010584611F00C0F09D000689A
:10156000C0F3810002280BD18D48001F00684002A3
:1015700006D42068800715D5E868012809D111E054
:10158000E868B8B10120C8F80000FFF7A1FD0646E1
:1015900005E002E1FFF79CFD801B0228C0D820680F
:1015A0008007F7D52068296920F0F80040EAC100DB
:1015B00020600DE0C8F80090FFF78AFD064604E0C1
:1015C000FFF786FD801B02281FD820688007F7D40C
:1015D0002878000722D5724E744869696C3671B15B
:1015E00001210160FFF774FD074604E0FFF770FD7D
:1015F000C01B022809D830688007F7D50EE0C0F874
:101600000090FFF765FD074605E083E0FFF760FD0A
:10161000C01B02287ED830688007F7D4287840079E
:1016200068D5DFF87CA100270AF1380ADAF8000053
:10163000C0000BD4DAF8001041F08051CAF8001055
:10164000DAF80000012700F080500090584E306812
:10165000C00510D4306840F480703060FFF738FD6A
:10166000009005E0FFF734FD0099401A022851D898
:101670003068C005F6D54A4EA868683601280FD0F4
:101680000528306810D020F001003060306820F06C
:1016900004003060A868B8B1FFF71AFD00900FE0B1
:1016A000306840F00100F4E740F004003060F7E7F4
:1016B000FFF70EFD0099411A41F28830814264D84B
:1016C00030688007F4D50EE0FFF702FD009007E0D8
:1016D000FFF7FEFC0099411A41F28830814254D84C
:1016E00030688007F4D42FB1DAF8001021F080516F
:1016F000CAF80010A869C0B3DBF80010C1F381017B
:1017000002294AD00228484607D0C8F86000FFF7EF
:10171000DFFC00E039E005463AE04746C8F86000E3
:10172000FFF7D6FC064604E0FFF7D2FC801B022838
:101730002BD820688001F7D4D5E907010843A96AAE
:101740001C4A490802EB01416A6A41EA82110843D6
:1017500095F82C1040EA01611148001F016001203A
:101760003866FFF7B5FC054605E014E0FFF7B0FC6E
:10177000401B022809D820688001F7D50BE000BF84
:10178000FFF7A6FC401B022802D90320BDE8F88F12
:1017900020688001F4D40020F8E70120F6E700007B
:1017A000083802400038024000004742800E47429D
:1017B000007000400000FFFF70B5040005D0002558
:1017C000A56294F8510010B106E0012070BD84F8C4
:1017D0005050204600F030F8022084F85100206874
:1017E000016821F040010160D4E901010843D4E916
:1017F00003121143084361690843218B01F400710E
:101800000843E1690843216A0843A16A0843216843
:101810000860A069042101EA1040616A0843216858
:1018200048602068C16921F40061C16165650120DB
:1018300084F85100002070BD00B500680D4987B0E4
:10184000884215D10C480021026842F4805202609F
:10185000006800F480500590E02000900220CDE95F
:1018600001010520CDE9031069460448FFF74EFB4E
:1018700007B000BD00300140443802400000024083
:101880004FF0E0210428086903D020F0040008612B
:10189000704740F00400FAE7704710B5401EB0F101
:1018A000807F01D3012010BD4FF0E02460610F2143
:1018B000601701F077FA0020A06107202061002066
:1018C00010BD10B5FFF7E8FF10BD7047704730B589
:1018D00090F83820012A20D0012280F838200223F5
:1018E00080F8393003685C6824F070045C60036839
:1018F0005C680D682C435C6003689C6824F080047D
:101900009C6003689C6849680C439C6080F839209F
:10191000002180F83810084630BD022030BD10B5D7
:10192000040003D094F8390010B107E0012010BD85
:10193000002084F83800204600F00CF8022084F8DB
:101940003900211D206801F04DFB012084F8390089
:10195000002010BD08B500680649884208D1064835
:10196000016841F008010160006800F00800009083
:1019700008BD0000000C004040380240022180F801
:10198000391001680A6842F001020A60012180F8FA
:101990003910002070470168CA6842F00102CA602D
:1019A0000068016841F0010101600020704770B5D6
:1019B000044690F83800012817D0012584F83850E3
:1019C000022084F839002068826822F0770222F42D
:1019D0007F4282600868502837D00DDC202859D01B
:1019E00005DC88B3102841D151E0022070BD3028B9
:1019F00053D040283AD13FE060282ED070280BD039
:101A0000B0F5805F03D0B0F5005F2FD110E0206803
:101A1000816821F0070115E0CB68D1E90121206838
:101A200001F04BFB2168886840F0770088601DE07A
:101A3000CB68D1E90121206801F03FFB2068816873
:101A400041F48041816011E01EE0CA684968206865
:101A500001F0FCFB5021206806E0CA684968206854
:101A600001F005FC6021206801F031FB84F8395059
:101A7000002084F8380070BDCA684968206801F009
:101A8000E5FB40212068EFE700212068ECE710210A
:101A90002068E9E720212068E6E730212068E3E7B5
:101AA0002DE9F0410D46040003D094F8390018B137
:101AB00008E00120BDE8F081002084F838002046CD
:101AC00000F03AF8022084F839002068816821F09B
:101AD00007018160211D206801F084FA2268906866
:101AE0009169166A2B68AF69034340F20330814362
:101AF00041EA0721A868EF6908434FF6FC41884393
:101B0000E96840EA0720014328692F6A000140EA9A
:101B10000730084369686D6926F0AA0646EA05158C
:101B2000294393602268906120680162012084F853
:101B300039000020BEE7000070B501682E4800267D
:101B40000224012586B0814210D12C48016841F061
:101B5000010101600068694600F0010005904FF442
:101B600020608DE87100264804952DE02348001F71
:101B7000B1F1804F19D0234A914229D1016841F037
:101B8000020101600068694600F0020005904020F3
:101B90008DE871001C480494FFF7B8F920208DE807
:101BA00071006946194804940EE0016841F0010192
:101BB00001600068694600F00100059048F20200EB
:101BC0008DE8710012480495FFF7A0F906B070BDCA
:101BD000104A9142FAD1016841F0040101600068A5
:101BE000694600F0040005904FF440508DE8710004
:101BF00009480494E8E7000000000140443802402E
:101C000000100240000400400008024000040240AE
:101C10000000024000080040000C024010B50446DD
:101C2000006891B1042904D00122002101F03AFAA0
:101C3000206801225FF0040101F034FA2068016895
:101C400041F001010160002010BD01220021F3E7F5
:101C5000704770B50446006801694FF00005C9433C
:101C6000890715D4C168C943890711D4E91E0161E8
:101C700001202076206880698007204602D0FFF787
:101C8000E7FF04E000F0C2F8204600F065F9257691
:101C900020680169C943490717D4C168C943490786
:101CA00013D46FF00401016102202076206880695E
:101CB00010F4407F204602D0FFF7CAFF04E000F096
:101CC000A5F8204600F048F9257620680169C94347
:101CD000090716D4C168C943090712D46FF0080177
:101CE0000161042020762068C0698007204602D068
:101CF000FFF7AEFF04E000F089F8204600F02CF971
:101D0000257620680169C943C90617D4C168C9434B
:101D1000C90613D46FF010010161082020762068F5
:101D2000C06910F4407F204602D0FFF791FF04E025
:101D300000F06CF8204600F00FF925762068016964
:101D4000C943C90708D1C168C943C90704D1891E5D
:101D50000161204600F01EF920680169C9430906A7
:101D600009D4C168C943090605D46FF08001016137
:101D70002046FFF7AAFD20680169C943490609D436
:101D8000C168C943490605D46FF04001016120468E
:101D900000F001F920680169C94389060BD4C168C4
:101DA000C943890607D46FF0200101612046BDE8D0
:101DB0007040FFF78BBD70BD00B5104B026802206C
:101DC000012185B09A4209D160220092CDE901013A
:101DD000039003200490694609480BE0094B9A429E
:101DE0000AD1D2000092CDE90101039009200490AC
:101DF00069460548FFF78AF805B000BD004001407C
:101E0000001002400018004000040240704770B506
:101E1000044690F838000D4601280DD0012684F8BC
:101E20003860022084F8390042B1042A18D0082A08
:101E30002AD00C2A4DD139E0022070BD206801F073
:101E40004FF92068816941F008018161206881694A
:101E500021F004018161206881692A69114311E040
:101E6000206801F069F92068816941F400618161AD
:101E70002068816921F480618161206881692A6913
:101E800041EA0221816124E0206801F087F920689D
:101E9000C16941F00801C1612068C16921F00401F4
:101EA000C1612068C1692A69114311E0206801F00D
:101EB000A5F92068C16941F40061C1612068C16968
:101EC00021F48061C1612068C1692A6941EA022167
:101ED000C16184F83960002084F8380070BD10B505
:101EE000040003D094F8390010B107E0012010BDC0
:101EF000002084F83800204600F00CF8022084F816
:101F00003900211D206801F06DF8012084F83900A6
:101F1000002010BD08B500680C49884208D10C4863
:101F2000016841F480310160006800F480300BE00A
:101F30000849884209D10648001F016841F0400164
:101F40000160006800F04000009008BD00400140C2
:101F500044380240001800407047000010B50446A5
:101F60000068012201F09EF808492068884202D0EA
:101F70000749884203D1416C41F400414164206823
:101F8000016841F001010160002010BD0000014026
:101F900000040140704770477047000070B5026848
:101FA00004461068D168536910F00F0F50D003F049
:101FB000010501F4907635435DD0C20705D0CA050E
:101FC00003D5E26B42F00102E263420705D5DA076E
:101FD00003D0E26B42F00202E263820705D5DA0722
:101FE00003D0E26B42F00402E263020705D5DA0790
:101FF00003D0E26B42F00802E263E26B002A33D0C6
:10200000800604D5880602D5204601F058F92068DC
:102010004069E16BC0F38010090700D428B3204663
:1020200001F03FF92068416949061AD5416921F05C
:1020300040014161606BA0B11B490165606BFEF717
:102040000BFE002810D0606B016DBDE870400847A2
:10205000830610D58B060ED52046BDE8704001F0F2
:102060002EB92046FFF798FF70BD2046FFF794FF7A
:102070000020E06370BD030606D50B0604D520469C
:10208000BDE8704001F0B8BA4006F3D54806F1D576
:10209000D168204621F04001D160202184F8391018
:1020A00000F0B0F870BD00009332000870B5040075
:1020B00004D094F83900002510B106E0012070BD6D
:1020C00084F83850204600F023F8242084F83900A2
:1020D0002068C16821F40051C160204601F036F942
:1020E0002068016921F4904101612068416921F073
:1020F0002A0141612068C16841F40051C160E56373
:10210000202084F8390084F83A00002070BD0000D7
:10211000F0B51E4A016800271D4802240325072642
:1021200087B0914211D1016841F40031016000682B
:1021300002AA00F4003005900C20CDE90004012033
:1021400082E86100694613481BE0134A91421AD1A4
:10215000016841F4802101600068694600F4802034
:102160000590D0148DE89100CDE903560B48FEF799
:10217000CDFE4FF480708DE89100CDE9035669469D
:102180000748FEF7C3FE07B0F0BD00000044004062
:102190004038024000000240004800400004024075
:1021A000000C024090F83A30202B1DD1D1B1CAB1B9
:1021B00090F83830012B17D081628285C2850021CA
:1021C000C163222280F83A2080F8381001684A69F9
:1021D00042F001024A610068C16841F49071C16037
:1021E0000020704701207047022070471CB56846E8
:1021F00000F0E8FD0248009981600199C1601CBDB2
:10220000000000207047000010B533482DED028B10
:10221000FFF7B4FB00213048FFF7A0FE04212E4851
:10222000FFF79CFE2D48FFF7A9FB00212B48FFF785
:1022300095FE04212948FFF791FE18212848FFF751
:10224000EDFC274800240068446218212548FFF768
:10225000E5FC24480068446218212348FFF7DEFCAF
:1022600021480068446218212048FFF7D7FC1F4826
:102270000068446201211E4800F036FC02211D481E
:1022800000F032FC03211C4800F02EFC04211B4806
:1022900000F02AFC9FED1A8A1548B0EE480A00F0BB
:1022A00041FCB0EE480A134800F03CFCB0EE480A8E
:1022B000114800F037FCB0EE480A104800F032FC3C
:1022C0000B4844600B4844600B4844600B48446032
:1022D000BDEC028B10BD0000500200208C020020DB
:1022E00024010020600100209C010020D801002072
:1022F0004803002080030020B8030020F0030020E2
:10230000000000007FB52B482949012501604FF4EA
:10231000803100240561C0E9011427490462C0E945
:102320000A140526C460C0E9065605634461FEF739
:1023300017FC18B14A2121A001F0AAF90820CDE923
:102340000005694602941B48FEF7C4FA18B15421EF
:102350001AA001F09DF90220019069461548FEF788
:10236000B9FA18B15C2115A001F092F9032001908F
:1023700069461048FEF7AEFA18B164210FA001F0CB
:1023800087F90420019069460A48FEF7A3FA18B1BC
:102390006C210AA001F07CF9694606480196FEF717
:1023A00099FA002803D0742104A001F071F97FBDCF
:1023B00000200140240000200100000F2E2E2F538A
:1023C00072632F6164632E6300000000054808B546
:1023D000016841F480010160006800F48000009011
:1023E00008BD0000303802402DE9F04F894887B021
:1023F0000024016841F010010160016801F0100142
:102400000591016841F004010160016801F00401D7
:102410000591016841F080010160016801F08001CF
:102420000591016841F001010160016801F00101BD
:102430000591016841F002010160016801F00201AB
:102440000591016841F0080101600068002200F078
:10245000080005904FF288116F48FEF733FE012205
:1024600011466E48FEF72EFE00224FF433616B4892
:10247000FEF728FE4CF2100A002251466848FEF78B
:1024800021FE4FF4807B002259466648FEF71AFE73
:10249000082501200095CDE9010469465E480394B2
:1024A000FEF734FD01200090CDE9010469465B4848
:1024B0000394FEF72BFD00950225CDE90154052676
:1024C000CDE9034669465548FEF720FD01200090FE
:1024D0005548CDE9010469465248FEF717FD4FF013
:1024E0001008CDF80080CDE901540627CDE9034757
:1024F00069464C48FEF70AFD4FF433600090012016
:102500000394CDE9010569464448FEF7FFFC4FF00E
:102510000409CDE90094694644480294FEF7F6FCAC
:102520004FF28010009001200394CDE90105694627
:102530003948FEF7EBFC68020090CDE90154CDE983
:10254000034669463948FEF7E1FC0120CDF800A0BA
:10255000CDE90104694632480394FEF7D7FC4FF4F5
:10256000A4500090CDE90154CDE9034769462B48BA
:10257000FEF7CCFC0120CDF800B00394CDE90105B5
:1025800069462848FEF7C2FC2802CDE900046946E6
:1025900024480294FEF7BAFC4FF4E0500090CDE9D5
:1025A00001540A20CDE9034069461E48FEF7AEFCFF
:1025B0001F4E4C20CDE90006694602941848FEF7EC
:1025C000A5FC2020CDE90004694615480294FEF7D9
:1025D0009DFCCDF80080CDE9016469461348FEF703
:1025E00095FC4FF4107000901220019002AA012077
:1025F00082E8110269460D48FEF788FC0D480095F7
:10260000CDE9010469460448FEF780FC07B0BDE847
:10261000F08F0000303802400010024000080240F5
:10262000000C0240000002400000111000040240B3
:10263000000021100000121010B5002211460820E1
:10264000FEF70CFE0820FEF7FEFD002211460920D1
:10265000FEF704FE0920FEF7F6FD002211460A20CF
:10266000FEF7FCFD0A20FEF7EEFD002211461220C7
:10267000FEF7F4FD1220FEF7E6FD002211461720BA
:10268000FEF7ECFD1720FEF7DEFD002211462620A6
:10269000FEF7E4FD2620FEF7D6FD0022114632208B
:1026A000FEF7DCFD3220FEF7CEFD00221146382079
:1026B000FEF7D4FDBDE810403820FEF7C4BD000091
:1026C000104810B50E4901604FF48271416000213D
:1026D0008160C1604FF400720161C0E90512C161FF
:1026E0000162416281620A21C162FFF765F8002838
:1026F00005D0BDE81040452103A000F0C9BF10BDC2
:1027000000300140CC0000202E2E2F5372632F7317
:1027100070692E630000000010B51A4888B018498F
:102720000024C0E9001444F29F11C0E90241046191
:10273000FFF7D5FB20B140F2091113A000F0A8FF6C
:102740006020CDE900040294002269460D480494FB
:10275000FFF75DFB20B14FF489710BA000F098FFEB
:10276000042269460748FFF752FB20B140F21711D7
:1027700005A000F08DFF0348FFF71EFB08B010BD59
:10278000001800408C0200202E2E2F5372632F74ED
:10279000696D2E630000000010B518488CB0164912
:1027A0000024C0E90014C914C0E902410461446175
:1027B0000320CDE900040120CDE9020405210491A4
:1027C000CDE90540CDE9074169460C48FFF768F9B6
:1027D00018B150210AA000F05BFF099409A907482D
:1027E0000A94FFF774F8002803D0572104A000F0E2
:1027F0004FFF0CB010BD000000000140240100207C
:102800002E2E2F5372632F74696D2E63000000000B
:1028100010B515488CB04FF080410024C0E9001479
:102820008460C46004610120CDE90004CDE90204A4
:102830000494CDE90540079469460B480894FFF7D6
:102840002FF918B1712109A000F022FF099409A9FC
:1028500005480A94FFF73BF8002803D0782103A02D
:1028600000F016FF0CB010BD600100202E2E2F537B
:1028700072632F74696D2E630000000010B5164856
:102880008CB014490024C0E900148460C460046161
:102890000120CDE90004CDE902040494CDE905400E
:1028A000079469460C480894FFF7FAF818B192218A
:1028B0000AA000F0EDFE099409A907480A94FFF761
:1028C00006F8002803D0992104A000F0E1FE0CB026
:1028D00010BD0000000400409C0100202E2E2F534C
:1028E00072632F74696D2E630000000010B51648E6
:1028F0008CB014490024C0E900148460C4600461F1
:102900000120CDE90004CDE902040494CDE905409D
:10291000079469460C480894FFF7C2F818B1B32130
:102920000AA000F0B5FE099409A907480A94FEF729
:10293000CEFF002803D0BA2104A000F0A9FE0CB0FD
:1029400010BD000000080040D80100202E2E2F539B
:1029500072632F74696D2E630000000010B5174874
:1029600086B01549016045F207210024C0E9011431
:10297000C721C0E90314FEF7D2FF18B1CC2110A083
:1029800000F086FE4FF48050009069460B48FFF738
:102990000EF818B1D2210AA000F07AFE049404A91E
:1029A00006480594FEF793FF002803D0D92104A020
:1029B00000F06EFE06B010BD000C004014020020B6
:1029C0002E2E2F5372632F74696D2E63000000004A
:1029D00010B5194888B017490024C0E9001448F21E
:1029E0003F31C0E902410461FFF779FA18B1E921EA
:1029F00012A000F04DFE6020CDE9000402940022F8
:102A000069460D480494FFF702FA18B1F2210BA0B1
:102A100000F03EFE042269460748FFF7F8F918B1B6
:102A2000F72106A000F034FE0348FFF7C5F908B00F
:102A300010BD000000400140500200202E2E2F53F8
:102A400072632F74696D2E63000000000D4810B58D
:102A50000B4901604FF4E1314160002181600C229B
:102A6000C160C0E904128161C161FFF71FFB00284A
:102A700005D0BDE81040452103A000F009BE10BDFF
:102A800000440040C80200202E2E2F5372632F7581
:102A9000736172742E6300000E4810B50C4901601A
:102AA0004FF4E1314160002181600C22C160C0E936
:102AB000041281610A46C161FEF77EFB002805D041
:102AC000BDE81040582104A000F0E2BD10BD000098
:102AD00000480040080300202E2E2F5372632F75EC
:102AE000736172742E630000016000219FED0A0A79
:102AF000416180ED0A0A80ED0B0A80ED030ADFEDEB
:102B0000070A80ED040AC0ED070ADFED050AC0EDF3
:102B1000080A80ED090A7047000000006F12033BAD
:102B200095BF56342DE9F04104462DED028BB0EEF1
:102B3000408A18EE101A0020B1F17E5F02DDB7EE78
:102B4000008A06E018EE101A11F1814F01D9BFEE8C
:102B5000008A8E4EDFED8E8A21688E4D012953D07A
:102B600002297CD08C4EDFED8D8A032978D0042990
:102B700046D1B5EEC08A8F01F1EE10FA13DD0022C6
:102B800080212846FEF79EFA012239462846FEF7A4
:102B900099FA94ED030A30EE080A20EE280ABDEEF9
:102BA000C00A10EE100AB5EEC08AF1EE10FA0AD192
:102BB000012280212846FEF785FA0122394628465F
:102BC000FEF780FA0020B5EEC08AF1EE10FA15D2B9
:102BD000012280212846FEF775FA00223946284650
:102BE000FEF770FA94ED040AF1EE480A30EEC00ADE
:102BF00020EE280ABDEEC00A10EE100A3168886384
:102C0000BDEC028BBDE8F081B5EEC08A4FF4805771
:102C1000F1EE10FA4FF4005813DD00223946284631
:102C2000FEF750FA012241462846FEF74BFA94ED92
:102C3000030A30EE080A20EE280ABDEEC00A10EEA4
:102C4000100AB5EEC08AF1EE10FA0DD10122394614
:102C50002846FEF737FA01224146284601E010E0F7
:102C600049E0FEF72FFA0020B5EEC08AF1EE10FA27
:102C70007DD2012239462846FEF724FA0022414639
:102C80006FE0B5EEC08A4FF48047F1EE10FA4FF4D2
:102C9000004813DD002239462846FEF713FA0122C8
:102CA00041462846FEF70EFA94ED030A30EE080A74
:102CB00020EE280ABDEEC00A10EE100AB5EEC08A5A
:102CC000F1EE10FA0AD1012239462846FEF7FAF948
:102CD000012241462846FEF7F5F90020B5EEC08AEC
:102CE000F1EE10FA8AD2012239462846FEF7EAF9B7
:102CF0000022414673E7B5EEC08A294DF1EE10FA85
:102D000013DD002210212846FEF7DCF901222021E4
:102D10002846FEF7D7F994ED030A30EE080A20EEB4
:102D2000280ABDEEC00A10EE100AB5EEC08AF1EE18
:102D300010FA0AD1012210212846FEF7C3F9012218
:102D400020212846FEF7BEF90020B5EEC08AF1EE3C
:102D500010FA17D2012210212846FEF7B3F90022FB
:102D600020212846FEF7AEF994ED040A00E009E0C0
:102D7000F1EE480A30EEC00A20EE280ABDEEC00A85
:102D800010EE100A316848633AE700005002002054
:102D9000003F0347001002408C020020003E8346A3
:102DA000000802400907090E002806DA00F00F00AB
:102DB00000F1E02080F8141D704700F1E02080F859
:102DC0000014704770B5124906460A785B2A02D192
:102DD000C8795D2805D00FA000F05CFC35607460F8
:102DE00070BD60F31F64487862F3070560F30F2538
:102DF000887860F31745C87860F31F65087960F339
:102E00000704487960F30F24887960F31744E5E7F5
:102E1000000000204672616D65206572726F72213C
:102E20000A00000010B5FEF759F9BDE81040FEF7A2
:102E300048BD000030B5254893B00025016841F039
:102E400080510160006800F08050119020480168B6
:102E500041F4804101600068022400F48040119038
:102E600001200090000401908001CDE90640082077
:102E700008904FF4A870CDE9090407200B9068462C
:102E8000FEF70CFB00B1FEE70CA90F2081E8310032
:102E90004FF4A0500F904FF48050109005210CA8D3
:102EA000FEF70EFA00B1FEE7FEF7A2FA4FF47A71D0
:102EB000B0FBF1F0FEF7F1FC0420FEF7E1FC00228C
:102EC0001146501EFEF7CAF913B030BD403802401B
:102ED000007000401048016841F4700101600F4823
:102EE000016841F0010101600C4A002108321160C3
:102EF00002680B4B1A400260031D0A4A1A600268FE
:102F000022F48022026005480C3001600249580614
:102F1000803908607047000088ED00E0003802400A
:102F2000FFFFF6FE103000242DE9F0412348FEF7A4
:102F300090FE4FF480412248FEF7C0F8214E3068E1
:102F4000416A214D69600068C0F30010A8602846FE
:102F500000F094FB01246C633068002545621B4F30
:102F60003868416A1A4E71600068C0F30010B060A2
:102F7000304600F083FB746338684562154F38684B
:102F8000416A154E71600068C0F30010B0603046B1
:102F900000F074FB746338684562104F3868416A0A
:102FA0000F4E71600068C0F30010B060304600F052
:102FB00065FB746338684562BDE8F0811402002047
:102FC000000C024024010020480300206001002082
:102FD000800300209C010020B8030020D8010020BD
:102FE000F0030020F0B50268234B244D244E254FFA
:102FF000254C4FF0804C984209D0604507D0A8423C
:1030000005D0B04203D0B84201D0A04204D122F092
:10301000700E4A6842EA0E0298421BD0604519D0F1
:10302000A84217D0B04215D0B84213D0A04211D058
:10303000164DA8420ED0164DA8420BD0154DA842F1
:1030400008D0154DA84205D0144DA84202D0144D09
:10305000A84203D122F44075CA682A4302608A68F4
:10306000C2620A688262984201D0A04201D1096915
:10307000016301214161F0BD0000014000040040F6
:1030800000080040000C00400004014000400140E6
:10309000004401400048014000180040001C00406E
:1030A0000020004010B50123046A8B409C43046259
:1030B000036A8A401343036210BD10B5846842EA74
:1030C000032224F47F440A432243826010BD8268B5
:1030D00022F070020A4342F007018160704700004D
:1030E00030B5026A22F001020262026A4368846912
:1030F0000D6824F07304254322F002048A682243F9
:103100000B4CA04202D00B4CA0420BD122F0080481
:10311000CA6823F4407322434C6922F004021C4322
:103120008B6923434360856149684163026230BD16
:10313000000001400004014030B5026A22F0100294
:103140000262026A436884690D6824F4E64444EA32
:1031500005248D6822F0200242EA05120D4DA84296
:1031600002D00D4DA8420ED1CD6822F0800242EA75
:1031700005124D6923F4406343EA85038D6922F00B
:10318000400243EA850343608461496881630262C7
:1031900030BD0000000001400004014030B5026A6B
:1031A00022F480720262036A4268C46923F40073E5
:1031B00024F073050C682C438D6843EA05230D4DFC
:1031C000A84202D00C4DA8420ED1CD6823F4006372
:1031D00043EA05234D6922F4405242EA05128D6903
:1031E00023F4806342EA05124260C4614968C16306
:1031F000036230BD000001400004014030B5026AA6
:1032000022F480520262046A4268C3690D6823F4A2
:10321000E64343EA05238D6824F4005444EA053468
:10322000084DA84202D0084DA84204D14D6922F4AD
:10323000804242EA85124260C361496801640462C7
:1032400030BD0000000001400004014010B5036AD9
:10325000046A24F001040462846924F0F00444EA5E
:10326000021423F00A020A438461026210BD10B501
:10327000036A23F0100303628369046A23F4704332
:1032800043EA023224F0A00343EA011182610162A1
:1032900010BD10B5806B0021C185C184FEF77CFE96
:1032A00010BD0168CA6822F49072CA6001684A6958
:1032B00022F001024A61202180F83A10704710B5CF
:1032C00090F83A10222901D0022010BD8168B1F592
:1032D000805F11D00169002901681FD0496801F0A1
:1032E0007F03816A4A1C82620B70C18D491E0904EA
:1032F000090CC18518D026E00269816A002A02689B
:10330000526805D0D2B20A80816A491C8162ECE71A
:10331000C2F308020A80816A891CF7E74A68816A59
:103320004B1C83620A70E0E70168CA6822F490725D
:10333000CA6001684A6922F001024A61202180F8CE
:103340003A10FEF753FF002010BD00002DE9F041B8
:1033500004460068016921F44052E16811430161AB
:103360002168C86849F20C6290432369A268E56944
:103370001A4363692B431A430243CA6021684869B0
:1033800020F44072A06910434861E1696425B1F5F9
:10339000004F9748974A21684FF032083FD091423A
:1033A00001D081427CD1FEF739F800EBC00101EB7E
:1033B000001061688900B0FBF1F6FEF72FF800EB12
:1033C000C00101EB001061688900B0FBF1F0B0FBB7
:1033D000F5F06FF01801484306EB800108EB01108F
:1033E000B0FBF5F000F0F006FEF718F800EBC001B6
:1033F00001EB001061688900B0FBF1F0B0FBF5F063
:1034000006EB0016FEF70AF800EBC00101EB001016
:1034100061688900B0FBF1F7FEF700F8D2E0914255
:1034200001D081423DD1FDF7F9FF00EBC00101EB76
:10343000001061684900B0FBF1F0B0FBF5F0060147
:10344000FDF7ECFF00EBC00101EB001061684900E3
:10345000B0FBF1F7FDF7E2FF00EBC00101EB00105C
:1034600061684900B0FBF1F0B0FBF5F06FF01801B6
:10347000484307EB800108EBC100B0FBF5F000F01A
:10348000F80006EB4006FDF7C9FF00EBC00101EBB9
:10349000001061684900B0FBF1F7FDF7BFFF3CE0A9
:1034A00055E0FDF7ABFF00EBC00101EB00106168D8
:1034B0004900B0FBF1F0B0FBF5F00601FDF79EFF0F
:1034C00000EBC00101EB001061684900B0FBF1F7AF
:1034D000FDF794FF00EBC00101EB001061684900AB
:1034E000B0FBF1F0B0FBF5F06FF01801484307EBCB
:1034F000800108EBC100B0FBF5F000F0F80006EB2E
:103500004006FDF77BFF00EBC00101EB0010616896
:103510004900B0FBF1F7FDF771FF00EBC00101EBD3
:10352000001061684900B0FBF1F0B0FBF5F06FF0FE
:103530001801484307EB800108EBC100B0FBF5F030
:1035400000F00700216830448860BDE8F081FDF795
:1035500055FF00EBC00101EB001061688900B0FB72
:10356000F1F6FDF74BFF00EBC00101EB00106168C5
:103570008900B0FBF1F0B0FBF5F06FF018014843A3
:1035800006EB800108EB0110B0FBF5F000F0F0064F
:10359000FDF734FF00EBC00101EB0010616889000A
:1035A000B0FBF1F0B0FBF5F006EB0016FDF726FFDF
:1035B00000EBC00101EB001061688900B0FBF1F77E
:1035C000FDF71CFF00EBC00101EB001061688900F2
:1035D000B0FBF1F0B0FBF5F06FF01801484307EBDA
:1035E000800108EB0110B0FBF5F000F00F00A9E737
:1035F000001401400010014090F83910212901D039
:10360000022070478168B1F5805F016A0BD04A1CC7
:103610000262026809785160C18C491E0904090CD4
:10362000C1840ED017E009880268C1F30801516017
:1036300001690029016A02D0491C0162ECE7891C7A
:10364000FBE70168CA6822F08002CA600068C168AE
:1036500041F04001C16000207047000010B50548EE
:10366000FEF79CFCBDE81040082203490148FEF724
:1036700099BD0000C802002000000020416829B167
:1036800081680029416801D0A1F50061416170475E
:10369000FEE700000FB4054B10B503A9044A0298D9
:1036A00000F0DAF810BC5DF814FB0000893F000858
:1036B0002000002002E008C8121F08C1002AFAD129
:1036C00070477047002001E001C1121F002AFBD1A2
:1036D000704700002DE9FF5F82B00021DDE9043072
:1036E000020DDDF840B0034318D044F61050A2F2AA
:1036F000FF3242431514119801281FD0A5EB0B008F
:10370000401C5FEA000A4FF000064E4FDFF8389188
:10371000B046504615D5CAF1000413E011980124B3
:103720004AA3012801D16FEA0B010298119AC0E95E
:103730000031C0E9024206B0BDE8F09FCBF10000C5
:10374000DFE704460021404A491842EB0450CDE926
:10375000001012E0E00707D032463B46404649469B
:10376000FCF73BFE8046894632463B4610461946EA
:10377000FCF733FE06460F466410002CEAD1DDE963
:103780000401DDE90023BAF1000F06DAFCF725FE9B
:1037900042464B46FCF721FE05E0FCF790FE424610
:1037A0004B46FCF78CFE04460E460022284BFCF7E5
:1037B0000DFF03D84FF0FF30014607E00022254BF4
:1037C00020463146FCF762FDFCF7E8FE102409E0D4
:1037D000002C0ADB0A220023FCF7F2FC039B3032A8
:1037E0001A55641E50EA0102F2D1641C039AC4F116
:1037F00011031444119A012A03D0012208430DD168
:103800000AE0084304D000204FF0110B119072E73A
:10381000A3EB0B056D1E0DE05B4504DD4FF00002D0
:1038200005F1010504E003DA4FF00002A5F10105FE
:10383000002AECD002981199C0E90231C0E9004594
:1038400079E70000000014400000F03F3000000065
:103850000000F0430000E03F2DE9FF4F95B09B468C
:103860008946064600250FE2252877D10024274601
:10387000F84A0121059400E0044316F8013F203B7B
:1038800001FA03F01042F7D130782A2811D06FF0F6
:103890002F033078A0F13002092A16D8059A44F097
:1038A000020402EB820203EB42021044761C0590F4
:1038B000EFE759F8042B0592002A03DA504244F44A
:1038C0000054059044F00204761C30782E2816D15E
:1038D00016F8010F44F004042A280DD06FF02F02CF
:1038E0003078A0F13003092B09D807EB870302EBEE
:1038F0004303C718761CF3E759F8047B761C30782D
:103900006C280FD006DC4C2817D068280DD06A2808
:1039100014D104E0742810D07A280FD10DE044F4BB
:1039200000140AE044F4801401E044F44014727876
:10393000824202D104F58014761C761C3078662809
:103940000BD013DC582877D009DC002875D0452827
:10395000F6D04628F4D047281AD19DE118E0632814
:1039600035D0642879D0652812D195E1702873D0BC
:1039700008DC6728F1D069286FD06E280DD06F2839
:1039800006D1B5E073282CD0752875D0782874D06E
:103990005A46179990476D1C75E1C4F302500228EE
:1039A00009D003280DD0D9F8001004280DD00D60DF
:1039B00009F1040967E1D9F80010EA17C1E90052DA
:1039C000F6E7D9F800100D80F2E70D70F0E719F86E
:1039D000041B8DF8001000208DF80100EA4601203C
:1039E00003E059F804AB4FF0FF3061074FF00001DE
:1039F00002D40DE008F101018846B9420FDA804592
:103A0000F8DB1AF808100029F4D108E008F10101E8
:103A100088468142FADB1AF808100029F6D1059889
:103A20005B46A0EB080721463846179A00F094FA47
:103A3000284400EB080507E04DE029E10DE01AF805
:103A4000010B5A4617999047B8F10108F7D25B4627
:103A500021463846179A13E142E00A220092C4F345
:103A600002524FF0000A022A08D059F804CB032A68
:103A70004FEAEC710AD00DE029E02AE009F10701D4
:103A800021F00702F2E802C1914609E00FFA8CFC2E
:103A90004FEAEC71042A03D14FFA8CFC4FEAEC7127
:103AA000002907DA0A460021DCF1000C61EB020173
:103AB0002D2202E0220504D52B228DF804200122BC
:103AC00003E0E20701D02022F7E7904659E00A21FF
:103AD00002E010220DE010214FF0000A00910BE0EF
:103AE00010224FF0000A44F004040827009203E07B
:103AF00008224FF0000A0092C4F30252022A05D0B5
:103B000059F804CB0021032A08D009E009F1070184
:103B100021F00702F2E802C1914605E01FFA8CFC91
:103B2000042A01D10CF0FF0C4FF00008220728D521
:103B3000702806D0009B83F0100353EA0A0305D0D7
:103B40000EE040228DF80420012208E05CEA010228
:103B500006D030228DF804208DF805000222904610
:103B6000009B83F0080353EA0A030AD15CEA0102CE
:103B700001D1620705D530228DF804204FF00108ED
:103B80007F1E582804D034A003900EA802900DE0A8
:103B900036A0F9E753466046009AFCF711FB8446CD
:103BA0000398825C0298401E029002705CEA010059
:103BB000F0D1029806A9081A00F1200A600702D580
:103BC00024F4803400E00127574502DDA7EB0A000A
:103BD00000E0002000EB0A01009005984144401AE3
:103BE0000590E00306D45B462146179A059800F03D
:103BF000B3F90544002706E001A85A46C05D1799AD
:103C000090476D1C7F1C4745F6DBE0030CD55B46F7
:103C10002146179A059800F09FF9054404E03020EA
:103C20005A46179990476D1C0099481E009000292C
:103C3000F5DC08E0029802995A460078491C029186
:103C4000179990476D1CBAF10001AAF1010AF1DC45
:103C500065E1000009280100303132333435363750
:103C600038396162636465660000000030313233C8
:103C70003435363738394142434445460000000068
:103C800000F058F90544761C307800287FF4ECAD3C
:103C900019B02846BDE8F08F620700D4062709F165
:103CA000070222F0070CFCE80223E14603F000487B
:103CB0005FEA080C02D00FF2702C0DE05FEA045CA2
:103CC00002D50FF2682C07E05FEAC47C02D00FF245
:103CD000602C01E0AFF2700C4FF0FF3823F000438E
:103CE000CDF850C065280CD006DC452809D0462800
:103CF0001DD047283DD13DE0662818D067287ED1E9
:103D000038E00021112F01DB112000E0781CCDE903
:103D1000000106A90EA8FFF7DDFCDDE90F010E9AF0
:103D200003910021009207F1010A04914DE04FF048
:103D300000400097CDE9011006A90EA8FFF7CAFCC4
:103D4000DDE90F0203920E9B11990022DDF80CA011
:103D50000093049211B9791C00EB010AB7EB0A0039
:103D600004D4C0F1FF3007F1010A0490AAEB070068
:103D7000019044E0012F00DA01270021112F01DD1D
:103D8000112000E03846CDE9000106A90EA8FFF792
:103D9000A1FCDDE90F010E9A03910021049100922C
:103DA000BA4621070CD40399514500DA8A46BAF184
:103DB000010F05DD009AAAF10101515C302908D0FC
:103DC000B84202DA10F1040F06DA0121CDE9011040
:103DD00015E0AAF10101E9E7002805DC0499014496
:103DE0000491AAEB000102E0411C514500DD8A4626
:103DF0000499401A401C01904FF0004002902007A7
:103E000004D40198504501DBCDF8048000208DF8E2
:103E10004F0002980DF14F07B0F1004F25D02B2035
:103E20000E9002984FF0020800280CDA40420290EF
:103E30002D200E9007E00A210298FCF7F2F93031AC
:103E4000029007F8011DB8F10001A8F10108F2DCA9
:103E500002980028EFD1791E0E980870307800F093
:103E6000200040F0450007F8020D12A8C01B00F129
:103E700007081498007800B1012000EB0A010198AE
:103E800001EBE07105984144401A401E0590E003A3
:103E900006D45B462146179A059800F05DF8054464
:103EA0001498007818B15A46179990476D1CE00392
:103EB00024D55B462146179A059800F04DF8054435
:103EC0001CE00498002807DBDDE90301884203DDDC
:103ED0000098405C179901E0179930205A469047A6
:103EE000049805F10105401C04900198401E0190C2
:103EF00004D12E205A46179990476D1CBAF1000143
:103F0000AAF1010ADDDC05E017F8010B5A46179902
:103F100090476D1CB8F10001A8F10108F4DC5B4684
:103F20002146179A0598ABE62D0000002B000000F3
:103F3000200000002DE9F041044600251E461746EA
:103F4000880404D405E039462020B0476D1C641E67
:103F5000F9D52846BDE8F0812DE9F0410446002559
:103F60001E469046C80301D5302700E0202788046C
:103F700004D505E041463846B0476D1C641EF9D5AE
:103F80002846BDE8F081000008490968C90706D045
:103F9000064980390968CA074FF0604101D170476E
:103FA00000BF0A68002AFBD008707047800E00E04E
:103FB0001CB5FDF79BF8FEF73DFFFEF715FAFEF77F
:103FC00005FAFEF79FF9FEF77BFBFEF7E5FBFEF730
:103FD0001FFCFEF753FCFEF789FCFEF7F9FCFEF729
:103FE0009BFBFEF733FDFEF757FDFEF7B7FCFEF730
:103FF00023FB0DA0FFF74EFB7F2110A0FFF74AFB2C
:10400000082269460E48FEF7CDF80E48FDF7C3FCBE
:10401000FEF7FAF80C4C60783128FCD194F90210C4
:104020000AA0FFF737FBF6E7506F6F4E696D204629
:1040300069726D776172650A0000000025690A00E7
:10404000C8020020140200200800002044617461AE
:104050003A2025690A000000000610160006101616
:104060000000000000000000010203040607080928
:104070000000000001020304984000080000002036
:1040800024000000B4360008BC40000824000020D2
:1040900004080000C4360008000000000000000012
:1040A00000000000000000000100000010000000FF
:0C40B000000000000024F40000000000EC
:040000050800018965
:00000001FF
